{
  "_format": "hh-sol-artifact-1",
  "contractName": "CapsuleNFT",
  "sourceName": "contracts/CapsuleNFT.sol",
  "abi": [
    {
      "inputs": [],
      "stateMutability": "nonpayable",
      "type": "constructor"
    },
    {
      "anonymous": false,
      "inputs": [
        {
          "indexed": true,
          "internalType": "address",
          "name": "owner",
          "type": "address"
        },
        {
          "indexed": true,
          "internalType": "address",
          "name": "approved",
          "type": "address"
        },
        {
          "indexed": true,
          "internalType": "uint256",
          "name": "tokenId",
          "type": "uint256"
        }
      ],
      "name": "Approval",
      "type": "event"
    },
    {
      "anonymous": false,
      "inputs": [
        {
          "indexed": true,
          "internalType": "address",
          "name": "owner",
          "type": "address"
        },
        {
          "indexed": true,
          "internalType": "address",
          "name": "operator",
          "type": "address"
        },
        {
          "indexed": false,
          "internalType": "bool",
          "name": "approved",
          "type": "bool"
        }
      ],
      "name": "ApprovalForAll",
      "type": "event"
    },
    {
      "anonymous": false,
      "inputs": [
        {
          "indexed": true,
          "internalType": "uint256",
          "name": "tokenId",
          "type": "uint256"
        },
        {
          "indexed": true,
          "internalType": "address",
          "name": "heir",
          "type": "address"
        },
        {
          "indexed": false,
          "internalType": "uint256",
          "name": "value",
          "type": "uint256"
        }
      ],
      "name": "CapsuleClaimed",
      "type": "event"
    },
    {
      "anonymous": false,
      "inputs": [
        {
          "indexed": true,
          "internalType": "uint256",
          "name": "tokenId",
          "type": "uint256"
        },
        {
          "indexed": true,
          "internalType": "address",
          "name": "creator",
          "type": "address"
        },
        {
          "indexed": true,
          "internalType": "address",
          "name": "heir",
          "type": "address"
        },
        {
          "indexed": false,
          "internalType": "uint256",
          "name": "unlockDate",
          "type": "uint256"
        },
        {
          "indexed": false,
          "internalType": "string",
          "name": "name",
          "type": "string"
        },
        {
          "indexed": false,
          "internalType": "string",
          "name": "description",
          "type": "string"
        },
        {
          "indexed": false,
          "internalType": "string",
          "name": "uri",
          "type": "string"
        },
        {
          "indexed": false,
          "internalType": "uint256",
          "name": "value",
          "type": "uint256"
        }
      ],
      "name": "CapsuleMinted",
      "type": "event"
    },
    {
      "anonymous": false,
      "inputs": [
        {
          "indexed": true,
          "internalType": "address",
          "name": "previousOwner",
          "type": "address"
        },
        {
          "indexed": true,
          "internalType": "address",
          "name": "newOwner",
          "type": "address"
        }
      ],
      "name": "OwnershipTransferred",
      "type": "event"
    },
    {
      "anonymous": false,
      "inputs": [
        {
          "indexed": true,
          "internalType": "address",
          "name": "from",
          "type": "address"
        },
        {
          "indexed": true,
          "internalType": "address",
          "name": "to",
          "type": "address"
        },
        {
          "indexed": true,
          "internalType": "uint256",
          "name": "tokenId",
          "type": "uint256"
        }
      ],
      "name": "Transfer",
      "type": "event"
    },
    {
      "inputs": [
        {
          "internalType": "uint256",
          "name": "tokenId",
          "type": "uint256"
        }
      ],
      "name": "addFundsToCapsule",
      "outputs": [],
      "stateMutability": "payable",
      "type": "function"
    },
    {
      "inputs": [
        {
          "internalType": "address",
          "name": "to",
          "type": "address"
        },
        {
          "internalType": "uint256",
          "name": "tokenId",
          "type": "uint256"
        }
      ],
      "name": "approve",
      "outputs": [],
      "stateMutability": "nonpayable",
      "type": "function"
    },
    {
      "inputs": [
        {
          "internalType": "address",
          "name": "owner",
          "type": "address"
        }
      ],
      "name": "balanceOf",
      "outputs": [
        {
          "internalType": "uint256",
          "name": "",
          "type": "uint256"
        }
      ],
      "stateMutability": "view",
      "type": "function"
    },
    {
      "inputs": [
        {
          "internalType": "uint256",
          "name": "",
          "type": "uint256"
        }
      ],
      "name": "capsules",
      "outputs": [
        {
          "internalType": "string",
          "name": "name",
          "type": "string"
        },
        {
          "internalType": "string",
          "name": "description",
          "type": "string"
        },
        {
          "internalType": "string",
          "name": "uri",
          "type": "string"
        },
        {
          "internalType": "uint256",
          "name": "unlockDate",
          "type": "uint256"
        },
        {
          "internalType": "address",
          "name": "heir",
          "type": "address"
        },
        {
          "internalType": "bool",
          "name": "claimed",
          "type": "bool"
        },
        {
          "internalType": "uint256",
          "name": "balance",
          "type": "uint256"
        }
      ],
      "stateMutability": "view",
      "type": "function"
    },
    {
      "inputs": [
        {
          "internalType": "uint256",
          "name": "tokenId",
          "type": "uint256"
        }
      ],
      "name": "claimCapsule",
      "outputs": [],
      "stateMutability": "nonpayable",
      "type": "function"
    },
    {
      "inputs": [],
      "name": "getAllCapsules",
      "outputs": [
        {
          "internalType": "uint256[]",
          "name": "",
          "type": "uint256[]"
        }
      ],
      "stateMutability": "view",
      "type": "function"
    },
    {
      "inputs": [
        {
          "internalType": "uint256",
          "name": "tokenId",
          "type": "uint256"
        }
      ],
      "name": "getApproved",
      "outputs": [
        {
          "internalType": "address",
          "name": "",
          "type": "address"
        }
      ],
      "stateMutability": "view",
      "type": "function"
    },
    {
      "inputs": [
        {
          "internalType": "uint256",
          "name": "tokenId",
          "type": "uint256"
        }
      ],
      "name": "getCapsule",
      "outputs": [
        {
          "internalType": "string",
          "name": "name",
          "type": "string"
        },
        {
          "internalType": "string",
          "name": "description",
          "type": "string"
        },
        {
          "internalType": "string",
          "name": "uri",
          "type": "string"
        },
        {
          "internalType": "uint256",
          "name": "unlockDate",
          "type": "uint256"
        },
        {
          "internalType": "address",
          "name": "heir",
          "type": "address"
        },
        {
          "internalType": "bool",
          "name": "claimed",
          "type": "bool"
        },
        {
          "internalType": "uint256",
          "name": "balance",
          "type": "uint256"
        }
      ],
      "stateMutability": "view",
      "type": "function"
    },
    {
      "inputs": [
        {
          "internalType": "uint256",
          "name": "tokenId",
          "type": "uint256"
        }
      ],
      "name": "getCapsuleBalance",
      "outputs": [
        {
          "internalType": "uint256",
          "name": "",
          "type": "uint256"
        }
      ],
      "stateMutability": "view",
      "type": "function"
    },
    {
      "inputs": [
        {
          "internalType": "address",
          "name": "owner",
          "type": "address"
        },
        {
          "internalType": "address",
          "name": "operator",
          "type": "address"
        }
      ],
      "name": "isApprovedForAll",
      "outputs": [
        {
          "internalType": "bool",
          "name": "",
          "type": "bool"
        }
      ],
      "stateMutability": "view",
      "type": "function"
    },
    {
      "inputs": [
        {
          "internalType": "address",
          "name": "heir",
          "type": "address"
        },
        {
          "internalType": "uint256",
          "name": "unlockDate",
          "type": "uint256"
        },
        {
          "internalType": "string",
          "name": "name",
          "type": "string"
        },
        {
          "internalType": "string",
          "name": "description",
          "type": "string"
        },
        {
          "internalType": "string",
          "name": "uri",
          "type": "string"
        }
      ],
      "name": "mintCapsule",
      "outputs": [],
      "stateMutability": "payable",
      "type": "function"
    },
    {
      "inputs": [],
      "name": "name",
      "outputs": [
        {
          "internalType": "string",
          "name": "",
          "type": "string"
        }
      ],
      "stateMutability": "view",
      "type": "function"
    },
    {
      "inputs": [],
      "name": "nextTokenId",
      "outputs": [
        {
          "internalType": "uint256",
          "name": "",
          "type": "uint256"
        }
      ],
      "stateMutability": "view",
      "type": "function"
    },
    {
      "inputs": [],
      "name": "owner",
      "outputs": [
        {
          "internalType": "address",
          "name": "",
          "type": "address"
        }
      ],
      "stateMutability": "view",
      "type": "function"
    },
    {
      "inputs": [
        {
          "internalType": "uint256",
          "name": "tokenId",
          "type": "uint256"
        }
      ],
      "name": "ownerOf",
      "outputs": [
        {
          "internalType": "address",
          "name": "",
          "type": "address"
        }
      ],
      "stateMutability": "view",
      "type": "function"
    },
    {
      "inputs": [],
      "name": "renounceOwnership",
      "outputs": [],
      "stateMutability": "nonpayable",
      "type": "function"
    },
    {
      "inputs": [
        {
          "internalType": "address",
          "name": "from",
          "type": "address"
        },
        {
          "internalType": "address",
          "name": "to",
          "type": "address"
        },
        {
          "internalType": "uint256",
          "name": "tokenId",
          "type": "uint256"
        }
      ],
      "name": "safeTransferFrom",
      "outputs": [],
      "stateMutability": "nonpayable",
      "type": "function"
    },
    {
      "inputs": [
        {
          "internalType": "address",
          "name": "from",
          "type": "address"
        },
        {
          "internalType": "address",
          "name": "to",
          "type": "address"
        },
        {
          "internalType": "uint256",
          "name": "tokenId",
          "type": "uint256"
        },
        {
          "internalType": "bytes",
          "name": "data",
          "type": "bytes"
        }
      ],
      "name": "safeTransferFrom",
      "outputs": [],
      "stateMutability": "nonpayable",
      "type": "function"
    },
    {
      "inputs": [
        {
          "internalType": "address",
          "name": "operator",
          "type": "address"
        },
        {
          "internalType": "bool",
          "name": "approved",
          "type": "bool"
        }
      ],
      "name": "setApprovalForAll",
      "outputs": [],
      "stateMutability": "nonpayable",
      "type": "function"
    },
    {
      "inputs": [
        {
          "internalType": "bytes4",
          "name": "interfaceId",
          "type": "bytes4"
        }
      ],
      "name": "supportsInterface",
      "outputs": [
        {
          "internalType": "bool",
          "name": "",
          "type": "bool"
        }
      ],
      "stateMutability": "view",
      "type": "function"
    },
    {
      "inputs": [],
      "name": "symbol",
      "outputs": [
        {
          "internalType": "string",
          "name": "",
          "type": "string"
        }
      ],
      "stateMutability": "view",
      "type": "function"
    },
    {
      "inputs": [
        {
          "internalType": "uint256",
          "name": "tokenId",
          "type": "uint256"
        }
      ],
      "name": "tokenURI",
      "outputs": [
        {
          "internalType": "string",
          "name": "",
          "type": "string"
        }
      ],
      "stateMutability": "view",
      "type": "function"
    },
    {
      "inputs": [
        {
          "internalType": "address",
          "name": "from",
          "type": "address"
        },
        {
          "internalType": "address",
          "name": "to",
          "type": "address"
        },
        {
          "internalType": "uint256",
          "name": "tokenId",
          "type": "uint256"
        }
      ],
      "name": "transferFrom",
      "outputs": [],
      "stateMutability": "nonpayable",
      "type": "function"
    },
    {
      "inputs": [
        {
          "internalType": "address",
          "name": "newOwner",
          "type": "address"
        }
      ],
      "name": "transferOwnership",
      "outputs": [],
      "stateMutability": "nonpayable",
      "type": "function"
    },
    {
      "inputs": [
        {
          "internalType": "uint256",
          "name": "tokenId",
          "type": "uint256"
        },
        {
          "internalType": "address",
          "name": "newHeir",
          "type": "address"
        }
      ],
      "name": "updateHeir",
      "outputs": [],
      "stateMutability": "nonpayable",
      "type": "function"
    },
    {
      "stateMutability": "payable",
      "type": "receive"
    }
  ],
  "bytecode": "0x608060405234801561001057600080fd5b506040518060400160405280600a81526020017f43617073756c654e4654000000000000000000000000000000000000000000008152506040518060400160405280600481526020017f434e465400000000000000000000000000000000000000000000000000000000815250816000908161008c91906103de565b50806001908161009c91906103de565b5050506100bb6100b06100c060201b60201c565b6100c860201b60201c565b6104b0565b600033905090565b6000600660009054906101000a900473ffffffffffffffffffffffffffffffffffffffff16905081600660006101000a81548173ffffffffffffffffffffffffffffffffffffffff021916908373ffffffffffffffffffffffffffffffffffffffff1602179055508173ffffffffffffffffffffffffffffffffffffffff168173ffffffffffffffffffffffffffffffffffffffff167f8be0079c531659141344cd1fd0a4f28419497f9722a3daafe3b4186f6b6457e060405160405180910390a35050565b600081519050919050565b7f4e487b7100000000000000000000000000000000000000000000000000000000600052604160045260246000fd5b7f4e487b7100000000000000000000000000000000000000000000000000000000600052602260045260246000fd5b6000600282049050600182168061020f57607f821691505b602082108103610222576102216101c8565b5b50919050565b60008190508160005260206000209050919050565b60006020601f8301049050919050565b600082821b905092915050565b60006008830261028a7fffffffffffffffffffffffffffffffffffffffffffffffffffffffffffffffff8261024d565b610294868361024d565b95508019841693508086168417925050509392505050565b6000819050919050565b6000819050919050565b60006102db6102d66102d1846102ac565b6102b6565b6102ac565b9050919050565b6000819050919050565b6102f5836102c0565b610309610301826102e2565b84845461025a565b825550505050565b600090565b61031e610311565b6103298184846102ec565b505050565b5b8181101561034d57610342600082610316565b60018101905061032f565b5050565b601f8211156103925761036381610228565b61036c8461023d565b8101602085101561037b578190505b61038f6103878561023d565b83018261032e565b50505b505050565b600082821c905092915050565b60006103b560001984600802610397565b1980831691505092915050565b60006103ce83836103a4565b9150826002028217905092915050565b6103e78261018e565b67ffffffffffffffff811115610400576103ff610199565b5b61040a82546101f7565b610415828285610351565b600060209050601f8311600181146104485760008415610436578287015190505b61044085826103c2565b8655506104a8565b601f19841661045686610228565b60005b8281101561047e57848901518255600182019150602085019450602081019050610459565b8683101561049b5784890151610497601f8916826103a4565b8355505b6001600288020188555050505b505050505050565b614235806104bf6000396000f3fe60806040526004361061016a5760003560e01c80636da789c8116100d1578063a22cb4651161008a578063c87b56dd11610064578063c87b56dd1461058f578063db21d4e0146105cc578063e985e9c5146105e8578063f2fde38b14610625576101aa565b8063a22cb46514610521578063b88d4fde1461054a578063bfbb103714610573576101aa565b80636da789c81461040f57806370a082311461044c578063715018a61461048957806375794a3c146104a05780638da5cb5b146104cb57806395d89b41146104f6576101aa565b806323b872dd1161012357806323b872dd146102cf5780633aac3858146102f857806342842e0e1461033b578063517bbf46146103645780636352211e146103a7578063672ea063146103e4576101aa565b806301ffc9a7146101af57806306fdde03146101ec578063081812fc14610217578063095ea7b3146102545780630dbf05e41461027d5780630f7460d3146102a6576101aa565b366101aa576040517f08c379a00000000000000000000000000000000000000000000000000000000081526004016101a1906128b8565b60405180910390fd5b600080fd5b3480156101bb57600080fd5b506101d660048036038101906101d19190612944565b61064e565b6040516101e3919061298c565b60405180910390f35b3480156101f857600080fd5b50610201610730565b60405161020e9190612a26565b60405180910390f35b34801561022357600080fd5b5061023e60048036038101906102399190612a7e565b6107c2565b60405161024b9190612aec565b60405180910390f35b34801561026057600080fd5b5061027b60048036038101906102769190612b33565b610808565b005b34801561028957600080fd5b506102a4600480360381019061029f9190612b73565b61091f565b005b3480156102b257600080fd5b506102cd60048036038101906102c89190612a7e565b610a46565b005b3480156102db57600080fd5b506102f660048036038101906102f19190612bb3565b610d1e565b005b34801561030457600080fd5b5061031f600480360381019061031a9190612a7e565b610d7e565b6040516103329796959493929190612c15565b60405180910390f35b34801561034757600080fd5b50610362600480360381019061035d9190612bb3565b61106b565b005b34801561037057600080fd5b5061038b60048036038101906103869190612a7e565b61108b565b60405161039e9796959493929190612c15565b60405180910390f35b3480156103b357600080fd5b506103ce60048036038101906103c99190612a7e565b611292565b6040516103db9190612aec565b60405180910390f35b3480156103f057600080fd5b506103f9611318565b6040516104069190612d57565b60405180910390f35b34801561041b57600080fd5b5061043660048036038101906104319190612a7e565b611370565b6040516104439190612d79565b60405180910390f35b34801561045857600080fd5b50610473600480360381019061046e9190612d94565b6113d8565b6040516104809190612d79565b60405180910390f35b34801561049557600080fd5b5061049e61148f565b005b3480156104ac57600080fd5b506104b56114a3565b6040516104c29190612d79565b60405180910390f35b3480156104d757600080fd5b506104e06114a9565b6040516104ed9190612aec565b60405180910390f35b34801561050257600080fd5b5061050b6114d3565b6040516105189190612a26565b60405180910390f35b34801561052d57600080fd5b5061054860048036038101906105439190612ded565b611565565b005b34801561055657600080fd5b50610571600480360381019061056c9190612f62565b61157b565b005b61058d60048036038101906105889190613086565b6115dd565b005b34801561059b57600080fd5b506105b660048036038101906105b19190612a7e565b611802565b6040516105c39190612a26565b60405180910390f35b6105e660048036038101906105e19190612a7e565b6118f2565b005b3480156105f457600080fd5b5061060f600480360381019061060a9190613155565b611a44565b60405161061c919061298c565b60405180910390f35b34801561063157600080fd5b5061064c60048036038101906106479190612d94565b611ad8565b005b60007f80ac58cd000000000000000000000000000000000000000000000000000000007bffffffffffffffffffffffffffffffffffffffffffffffffffffffff1916827bffffffffffffffffffffffffffffffffffffffffffffffffffffffff1916148061071957507f5b5e139f000000000000000000000000000000000000000000000000000000007bffffffffffffffffffffffffffffffffffffffffffffffffffffffff1916827bffffffffffffffffffffffffffffffffffffffffffffffffffffffff1916145b80610729575061072882611b5b565b5b9050919050565b60606000805461073f906131c4565b80601f016020809104026020016040519081016040528092919081815260200182805461076b906131c4565b80156107b85780601f1061078d576101008083540402835291602001916107b8565b820191906000526020600020905b81548152906001019060200180831161079b57829003601f168201915b5050505050905090565b60006107cd82611bc5565b6004600083815260200190815260200160002060009054906101000a900473ffffffffffffffffffffffffffffffffffffffff169050919050565b600061081382611292565b90508073ffffffffffffffffffffffffffffffffffffffff168373ffffffffffffffffffffffffffffffffffffffff1603610883576040517f08c379a000000000000000000000000000000000000000000000000000000000815260040161087a90613267565b60405180910390fd5b8073ffffffffffffffffffffffffffffffffffffffff166108a2611c10565b73ffffffffffffffffffffffffffffffffffffffff1614806108d157506108d0816108cb611c10565b611a44565b5b610910576040517f08c379a0000000000000000000000000000000000000000000000000000000008152600401610907906132f9565b60405180910390fd5b61091a8383611c18565b505050565b3373ffffffffffffffffffffffffffffffffffffffff1661093f83611292565b73ffffffffffffffffffffffffffffffffffffffff1614610995576040517f08c379a000000000000000000000000000000000000000000000000000000000815260040161098c90613365565b60405180910390fd5b600860008381526020019081526020016000206003015442106109ed576040517f08c379a00000000000000000000000000000000000000000000000000000000081526004016109e4906133d1565b60405180910390fd5b806008600084815260200190815260200160002060040160006101000a81548173ffffffffffffffffffffffffffffffffffffffff021916908373ffffffffffffffffffffffffffffffffffffffff1602179055505050565b6000600860008381526020019081526020016000209050610a6682611cd1565b610aa5576040517f08c379a0000000000000000000000000000000000000000000000000000000008152600401610a9c9061343d565b60405180910390fd5b8060030154421015610aec576040517f08c379a0000000000000000000000000000000000000000000000000000000008152600401610ae3906134a9565b60405180910390fd5b8060040160009054906101000a900473ffffffffffffffffffffffffffffffffffffffff1673ffffffffffffffffffffffffffffffffffffffff163373ffffffffffffffffffffffffffffffffffffffff1614610b7e576040517f08c379a0000000000000000000000000000000000000000000000000000000008152600401610b7590613515565b60405180910390fd5b8060040160149054906101000a900460ff1615610bd0576040517f08c379a0000000000000000000000000000000000000000000000000000000008152600401610bc790613581565b60405180910390fd5b60018160040160146101000a81548160ff021916908315150217905550610c00610bf983611292565b3384611d12565b6000816005015490506000811115610cca576000826005018190555060003373ffffffffffffffffffffffffffffffffffffffff1682604051610c42906135d2565b60006040518083038185875af1925050503d8060008114610c7f576040519150601f19603f3d011682016040523d82523d6000602084013e610c84565b606091505b5050905080610cc8576040517f08c379a0000000000000000000000000000000000000000000000000000000008152600401610cbf90613633565b60405180910390fd5b505b3373ffffffffffffffffffffffffffffffffffffffff16837f062c8e3f61257cd5800ff8d66114a1d8783e87e8517af07d7d81e18a3b09d3a383604051610d119190612d79565b60405180910390a3505050565b610d2f610d29611c10565b8261200b565b610d6e576040517f08c379a0000000000000000000000000000000000000000000000000000000008152600401610d65906136c5565b60405180910390fd5b610d79838383611d12565b505050565b6060806060600080600080610d9288611cd1565b610dd1576040517f08c379a0000000000000000000000000000000000000000000000000000000008152600401610dc890613731565b60405180910390fd5b6000600860008a81526020019081526020016000206040518060e0016040529081600082018054610e01906131c4565b80601f0160208091040260200160405190810160405280929190818152602001828054610e2d906131c4565b8015610e7a5780601f10610e4f57610100808354040283529160200191610e7a565b820191906000526020600020905b815481529060010190602001808311610e5d57829003601f168201915b50505050508152602001600182018054610e93906131c4565b80601f0160208091040260200160405190810160405280929190818152602001828054610ebf906131c4565b8015610f0c5780601f10610ee157610100808354040283529160200191610f0c565b820191906000526020600020905b815481529060010190602001808311610eef57829003601f168201915b50505050508152602001600282018054610f25906131c4565b80601f0160208091040260200160405190810160405280929190818152602001828054610f51906131c4565b8015610f9e5780601f10610f7357610100808354040283529160200191610f9e565b820191906000526020600020905b815481529060010190602001808311610f8157829003601f168201915b50505050508152602001600382015481526020016004820160009054906101000a900473ffffffffffffffffffffffffffffffffffffffff1673ffffffffffffffffffffffffffffffffffffffff1673ffffffffffffffffffffffffffffffffffffffff1681526020016004820160149054906101000a900460ff161515151581526020016005820154815250509050806000015181602001518260400151836060015184608001518560a001518660c00151975097509750975097509750975050919395979092949650565b6110868383836040518060200160405280600081525061157b565b505050565b60086020528060005260406000206000915090508060000180546110ae906131c4565b80601f01602080910402602001604051908101604052809291908181526020018280546110da906131c4565b80156111275780601f106110fc57610100808354040283529160200191611127565b820191906000526020600020905b81548152906001019060200180831161110a57829003601f168201915b50505050509080600101805461113c906131c4565b80601f0160208091040260200160405190810160405280929190818152602001828054611168906131c4565b80156111b55780601f1061118a576101008083540402835291602001916111b5565b820191906000526020600020905b81548152906001019060200180831161119857829003601f168201915b5050505050908060020180546111ca906131c4565b80601f01602080910402602001604051908101604052809291908181526020018280546111f6906131c4565b80156112435780601f1061121857610100808354040283529160200191611243565b820191906000526020600020905b81548152906001019060200180831161122657829003601f168201915b5050505050908060030154908060040160009054906101000a900473ffffffffffffffffffffffffffffffffffffffff16908060040160149054906101000a900460ff16908060050154905087565b60008061129e836120a0565b9050600073ffffffffffffffffffffffffffffffffffffffff168173ffffffffffffffffffffffffffffffffffffffff160361130f576040517f08c379a00000000000000000000000000000000000000000000000000000000081526004016113069061379d565b60405180910390fd5b80915050919050565b6060600980548060200260200160405190810160405280929190818152602001828054801561136657602002820191906000526020600020905b815481526020019060010190808311611352575b5050505050905090565b600061137b82611cd1565b6113ba576040517f08c379a00000000000000000000000000000000000000000000000000000000081526004016113b190613731565b60405180910390fd5b60086000838152602001908152602001600020600501549050919050565b60008073ffffffffffffffffffffffffffffffffffffffff168273ffffffffffffffffffffffffffffffffffffffff1603611448576040517f08c379a000000000000000000000000000000000000000000000000000000000815260040161143f9061382f565b60405180910390fd5b600360008373ffffffffffffffffffffffffffffffffffffffff1673ffffffffffffffffffffffffffffffffffffffff168152602001908152602001600020549050919050565b6114976120dd565b6114a1600061215b565b565b60075481565b6000600660009054906101000a900473ffffffffffffffffffffffffffffffffffffffff16905090565b6060600180546114e2906131c4565b80601f016020809104026020016040519081016040528092919081815260200182805461150e906131c4565b801561155b5780601f106115305761010080835404028352916020019161155b565b820191906000526020600020905b81548152906001019060200180831161153e57829003601f168201915b5050505050905090565b611577611570611c10565b8383612221565b5050565b61158c611586611c10565b8361200b565b6115cb576040517f08c379a00000000000000000000000000000000000000000000000000000000081526004016115c2906136c5565b60405180910390fd5b6115d78484848461238d565b50505050565b42841161161f576040517f08c379a00000000000000000000000000000000000000000000000000000000081526004016116169061389b565b60405180910390fd5b600060076000815480929190611634906138ea565b91905055905061164433826123e9565b6040518060e001604052808581526020018481526020018381526020018681526020018773ffffffffffffffffffffffffffffffffffffffff168152602001600015158152602001348152506008600083815260200190815260200160002060008201518160000190816116b89190613ade565b5060208201518160010190816116ce9190613ade565b5060408201518160020190816116e49190613ade565b506060820151816003015560808201518160040160006101000a81548173ffffffffffffffffffffffffffffffffffffffff021916908373ffffffffffffffffffffffffffffffffffffffff16021790555060a08201518160040160146101000a81548160ff02191690831515021790555060c0820151816005015590505060098190806001815401808255809150506001900390600052602060002001600090919091909150558573ffffffffffffffffffffffffffffffffffffffff163373ffffffffffffffffffffffffffffffffffffffff16827f36205f3cb725b2dcdb44a04059f198cbd8b0035be79abfa7fb4737dcbf178bd688888888346040516117f2959493929190613bb0565b60405180910390a4505050505050565b606061180d82611cd1565b61184c576040517f08c379a000000000000000000000000000000000000000000000000000000000815260040161184390613c64565b60405180910390fd5b60086000838152602001908152602001600020600201805461186d906131c4565b80601f0160208091040260200160405190810160405280929190818152602001828054611899906131c4565b80156118e65780601f106118bb576101008083540402835291602001916118e6565b820191906000526020600020905b8154815290600101906020018083116118c957829003601f168201915b50505050509050919050565b6118fb81611cd1565b61193a576040517f08c379a00000000000000000000000000000000000000000000000000000000081526004016119319061343d565b60405180910390fd5b3373ffffffffffffffffffffffffffffffffffffffff1661195a82611292565b73ffffffffffffffffffffffffffffffffffffffff16146119b0576040517f08c379a00000000000000000000000000000000000000000000000000000000081526004016119a790613cd0565b60405180910390fd5b6008600082815260200190815260200160002060040160149054906101000a900460ff1615611a14576040517f08c379a0000000000000000000000000000000000000000000000000000000008152600401611a0b90613581565b60405180910390fd5b34600860008381526020019081526020016000206005016000828254611a3a9190613cf0565b9250508190555050565b6000600560008473ffffffffffffffffffffffffffffffffffffffff1673ffffffffffffffffffffffffffffffffffffffff16815260200190815260200160002060008373ffffffffffffffffffffffffffffffffffffffff1673ffffffffffffffffffffffffffffffffffffffff16815260200190815260200160002060009054906101000a900460ff16905092915050565b611ae06120dd565b600073ffffffffffffffffffffffffffffffffffffffff168173ffffffffffffffffffffffffffffffffffffffff1603611b4f576040517f08c379a0000000000000000000000000000000000000000000000000000000008152600401611b4690613d96565b60405180910390fd5b611b588161215b565b50565b60007f01ffc9a7000000000000000000000000000000000000000000000000000000007bffffffffffffffffffffffffffffffffffffffffffffffffffffffff1916827bffffffffffffffffffffffffffffffffffffffffffffffffffffffff1916149050919050565b611bce81611cd1565b611c0d576040517f08c379a0000000000000000000000000000000000000000000000000000000008152600401611c049061379d565b60405180910390fd5b50565b600033905090565b816004600083815260200190815260200160002060006101000a81548173ffffffffffffffffffffffffffffffffffffffff021916908373ffffffffffffffffffffffffffffffffffffffff160217905550808273ffffffffffffffffffffffffffffffffffffffff16611c8b83611292565b73ffffffffffffffffffffffffffffffffffffffff167f8c5be1e5ebec7d5bd14f71427d1e84f3dd0314c0f7b2291e5b200ac8c7c3b92560405160405180910390a45050565b60008073ffffffffffffffffffffffffffffffffffffffff16611cf3836120a0565b73ffffffffffffffffffffffffffffffffffffffff1614159050919050565b8273ffffffffffffffffffffffffffffffffffffffff16611d3282611292565b73ffffffffffffffffffffffffffffffffffffffff1614611d88576040517f08c379a0000000000000000000000000000000000000000000000000000000008152600401611d7f90613e28565b60405180910390fd5b600073ffffffffffffffffffffffffffffffffffffffff168273ffffffffffffffffffffffffffffffffffffffff1603611df7576040517f08c379a0000000000000000000000000000000000000000000000000000000008152600401611dee90613eba565b60405180910390fd5b611e048383836001612407565b8273ffffffffffffffffffffffffffffffffffffffff16611e2482611292565b73ffffffffffffffffffffffffffffffffffffffff1614611e7a576040517f08c379a0000000000000000000000000000000000000000000000000000000008152600401611e7190613e28565b60405180910390fd5b6004600082815260200190815260200160002060006101000a81549073ffffffffffffffffffffffffffffffffffffffff02191690556001600360008573ffffffffffffffffffffffffffffffffffffffff1673ffffffffffffffffffffffffffffffffffffffff168152602001908152602001600020600082825403925050819055506001600360008473ffffffffffffffffffffffffffffffffffffffff1673ffffffffffffffffffffffffffffffffffffffff16815260200190815260200160002060008282540192505081905550816002600083815260200190815260200160002060006101000a81548173ffffffffffffffffffffffffffffffffffffffff021916908373ffffffffffffffffffffffffffffffffffffffff160217905550808273ffffffffffffffffffffffffffffffffffffffff168473ffffffffffffffffffffffffffffffffffffffff167fddf252ad1be2c89b69c2b068fc378daa952ba7f163c4a11628f55a4df523b3ef60405160405180910390a4612006838383600161240d565b505050565b60008061201783611292565b90508073ffffffffffffffffffffffffffffffffffffffff168473ffffffffffffffffffffffffffffffffffffffff16148061205957506120588185611a44565b5b8061209757508373ffffffffffffffffffffffffffffffffffffffff1661207f846107c2565b73ffffffffffffffffffffffffffffffffffffffff16145b91505092915050565b60006002600083815260200190815260200160002060009054906101000a900473ffffffffffffffffffffffffffffffffffffffff169050919050565b6120e5611c10565b73ffffffffffffffffffffffffffffffffffffffff166121036114a9565b73ffffffffffffffffffffffffffffffffffffffff1614612159576040517f08c379a000000000000000000000000000000000000000000000000000000000815260040161215090613f26565b60405180910390fd5b565b6000600660009054906101000a900473ffffffffffffffffffffffffffffffffffffffff16905081600660006101000a81548173ffffffffffffffffffffffffffffffffffffffff021916908373ffffffffffffffffffffffffffffffffffffffff1602179055508173ffffffffffffffffffffffffffffffffffffffff168173ffffffffffffffffffffffffffffffffffffffff167f8be0079c531659141344cd1fd0a4f28419497f9722a3daafe3b4186f6b6457e060405160405180910390a35050565b8173ffffffffffffffffffffffffffffffffffffffff168373ffffffffffffffffffffffffffffffffffffffff160361228f576040517f08c379a000000000000000000000000000000000000000000000000000000000815260040161228690613f92565b60405180910390fd5b80600560008573ffffffffffffffffffffffffffffffffffffffff1673ffffffffffffffffffffffffffffffffffffffff16815260200190815260200160002060008473ffffffffffffffffffffffffffffffffffffffff1673ffffffffffffffffffffffffffffffffffffffff16815260200190815260200160002060006101000a81548160ff0219169083151502179055508173ffffffffffffffffffffffffffffffffffffffff168373ffffffffffffffffffffffffffffffffffffffff167f17307eab39ab6107e8899845ad3d59bd9653f200f220920489ca2b5937696c3183604051612380919061298c565b60405180910390a3505050565b612398848484611d12565b6123a484848484612413565b6123e3576040517f08c379a00000000000000000000000000000000000000000000000000000000081526004016123da90614024565b60405180910390fd5b50505050565b61240382826040518060200160405280600081525061259a565b5050565b50505050565b50505050565b60006124348473ffffffffffffffffffffffffffffffffffffffff166125f5565b1561258d578373ffffffffffffffffffffffffffffffffffffffff1663150b7a0261245d611c10565b8786866040518563ffffffff1660e01b815260040161247f9493929190614099565b6020604051808303816000875af19250505080156124bb57506040513d601f19601f820116820180604052508101906124b891906140fa565b60015b61253d573d80600081146124eb576040519150601f19603f3d011682016040523d82523d6000602084013e6124f0565b606091505b506000815103612535576040517f08c379a000000000000000000000000000000000000000000000000000000000815260040161252c90614024565b60405180910390fd5b805181602001fd5b63150b7a0260e01b7bffffffffffffffffffffffffffffffffffffffffffffffffffffffff1916817bffffffffffffffffffffffffffffffffffffffffffffffffffffffff191614915050612592565b600190505b949350505050565b6125a48383612618565b6125b16000848484612413565b6125f0576040517f08c379a00000000000000000000000000000000000000000000000000000000081526004016125e790614024565b60405180910390fd5b505050565b6000808273ffffffffffffffffffffffffffffffffffffffff163b119050919050565b600073ffffffffffffffffffffffffffffffffffffffff168273ffffffffffffffffffffffffffffffffffffffff1603612687576040517f08c379a000000000000000000000000000000000000000000000000000000000815260040161267e90614173565b60405180910390fd5b61269081611cd1565b156126d0576040517f08c379a00000000000000000000000000000000000000000000000000000000081526004016126c7906141df565b60405180910390fd5b6126de600083836001612407565b6126e781611cd1565b15612727576040517f08c379a000000000000000000000000000000000000000000000000000000000815260040161271e906141df565b60405180910390fd5b6001600360008473ffffffffffffffffffffffffffffffffffffffff1673ffffffffffffffffffffffffffffffffffffffff16815260200190815260200160002060008282540192505081905550816002600083815260200190815260200160002060006101000a81548173ffffffffffffffffffffffffffffffffffffffff021916908373ffffffffffffffffffffffffffffffffffffffff160217905550808273ffffffffffffffffffffffffffffffffffffffff16600073ffffffffffffffffffffffffffffffffffffffff167fddf252ad1be2c89b69c2b068fc378daa952ba7f163c4a11628f55a4df523b3ef60405160405180910390a461283160008383600161240d565b5050565b600082825260208201905092915050565b7f5573652061646446756e6473546f43617073756c6520746f2066756e6420612060008201527f63617073756c6500000000000000000000000000000000000000000000000000602082015250565b60006128a2602783612835565b91506128ad82612846565b604082019050919050565b600060208201905081810360008301526128d181612895565b9050919050565b6000604051905090565b600080fd5b600080fd5b60007fffffffff0000000000000000000000000000000000000000000000000000000082169050919050565b612921816128ec565b811461292c57600080fd5b50565b60008135905061293e81612918565b92915050565b60006020828403121561295a576129596128e2565b5b60006129688482850161292f565b91505092915050565b60008115159050919050565b61298681612971565b82525050565b60006020820190506129a1600083018461297d565b92915050565b600081519050919050565b60005b838110156129d05780820151818401526020810190506129b5565b60008484015250505050565b6000601f19601f8301169050919050565b60006129f8826129a7565b612a028185612835565b9350612a128185602086016129b2565b612a1b816129dc565b840191505092915050565b60006020820190508181036000830152612a4081846129ed565b905092915050565b6000819050919050565b612a5b81612a48565b8114612a6657600080fd5b50565b600081359050612a7881612a52565b92915050565b600060208284031215612a9457612a936128e2565b5b6000612aa284828501612a69565b91505092915050565b600073ffffffffffffffffffffffffffffffffffffffff82169050919050565b6000612ad682612aab565b9050919050565b612ae681612acb565b82525050565b6000602082019050612b016000830184612add565b92915050565b612b1081612acb565b8114612b1b57600080fd5b50565b600081359050612b2d81612b07565b92915050565b60008060408385031215612b4a57612b496128e2565b5b6000612b5885828601612b1e565b9250506020612b6985828601612a69565b9150509250929050565b60008060408385031215612b8a57612b896128e2565b5b6000612b9885828601612a69565b9250506020612ba985828601612b1e565b9150509250929050565b600080600060608486031215612bcc57612bcb6128e2565b5b6000612bda86828701612b1e565b9350506020612beb86828701612b1e565b9250506040612bfc86828701612a69565b9150509250925092565b612c0f81612a48565b82525050565b600060e0820190508181036000830152612c2f818a6129ed565b90508181036020830152612c4381896129ed565b90508181036040830152612c5781886129ed565b9050612c666060830187612c06565b612c736080830186612add565b612c8060a083018561297d565b612c8d60c0830184612c06565b98975050505050505050565b600081519050919050565b600082825260208201905092915050565b6000819050602082019050919050565b612cce81612a48565b82525050565b6000612ce08383612cc5565b60208301905092915050565b6000602082019050919050565b6000612d0482612c99565b612d0e8185612ca4565b9350612d1983612cb5565b8060005b83811015612d4a578151612d318882612cd4565b9750612d3c83612cec565b925050600181019050612d1d565b5085935050505092915050565b60006020820190508181036000830152612d718184612cf9565b905092915050565b6000602082019050612d8e6000830184612c06565b92915050565b600060208284031215612daa57612da96128e2565b5b6000612db884828501612b1e565b91505092915050565b612dca81612971565b8114612dd557600080fd5b50565b600081359050612de781612dc1565b92915050565b60008060408385031215612e0457612e036128e2565b5b6000612e1285828601612b1e565b9250506020612e2385828601612dd8565b9150509250929050565b600080fd5b600080fd5b7f4e487b7100000000000000000000000000000000000000000000000000000000600052604160045260246000fd5b612e6f826129dc565b810181811067ffffffffffffffff82111715612e8e57612e8d612e37565b5b80604052505050565b6000612ea16128d8565b9050612ead8282612e66565b919050565b600067ffffffffffffffff821115612ecd57612ecc612e37565b5b612ed6826129dc565b9050602081019050919050565b82818337600083830152505050565b6000612f05612f0084612eb2565b612e97565b905082815260208101848484011115612f2157612f20612e32565b5b612f2c848285612ee3565b509392505050565b600082601f830112612f4957612f48612e2d565b5b8135612f59848260208601612ef2565b91505092915050565b60008060008060808587031215612f7c57612f7b6128e2565b5b6000612f8a87828801612b1e565b9450506020612f9b87828801612b1e565b9350506040612fac87828801612a69565b925050606085013567ffffffffffffffff811115612fcd57612fcc6128e7565b5b612fd987828801612f34565b91505092959194509250565b600067ffffffffffffffff82111561300057612fff612e37565b5b613009826129dc565b9050602081019050919050565b600061302961302484612fe5565b612e97565b90508281526020810184848401111561304557613044612e32565b5b613050848285612ee3565b509392505050565b600082601f83011261306d5761306c612e2d565b5b813561307d848260208601613016565b91505092915050565b600080600080600060a086880312156130a2576130a16128e2565b5b60006130b088828901612b1e565b95505060206130c188828901612a69565b945050604086013567ffffffffffffffff8111156130e2576130e16128e7565b5b6130ee88828901613058565b935050606086013567ffffffffffffffff81111561310f5761310e6128e7565b5b61311b88828901613058565b925050608086013567ffffffffffffffff81111561313c5761313b6128e7565b5b61314888828901613058565b9150509295509295909350565b6000806040838503121561316c5761316b6128e2565b5b600061317a85828601612b1e565b925050602061318b85828601612b1e565b9150509250929050565b7f4e487b7100000000000000000000000000000000000000000000000000000000600052602260045260246000fd5b600060028204905060018216806131dc57607f821691505b6020821081036131ef576131ee613195565b5b50919050565b7f4552433732313a20617070726f76616c20746f2063757272656e74206f776e6560008201527f7200000000000000000000000000000000000000000000000000000000000000602082015250565b6000613251602183612835565b915061325c826131f5565b604082019050919050565b6000602082019050818103600083015261328081613244565b9050919050565b7f4552433732313a20617070726f76652063616c6c6572206973206e6f7420746f60008201527f6b656e206f776e6572206f7220617070726f76656420666f7220616c6c000000602082015250565b60006132e3603d83612835565b91506132ee82613287565b604082019050919050565b60006020820190508181036000830152613312816132d6565b9050919050565b7f4e6f7420746f6b656e206f776e65720000000000000000000000000000000000600082015250565b600061334f600f83612835565b915061335a82613319565b602082019050919050565b6000602082019050818103600083015261337e81613342565b9050919050565b7f43617073756c6520616c726561647920756e6c6f636b65640000000000000000600082015250565b60006133bb601883612835565b91506133c682613385565b602082019050919050565b600060208201905081810360008301526133ea816133ae565b9050919050565b7f496e76616c696420746f6b656e00000000000000000000000000000000000000600082015250565b6000613427600d83612835565b9150613432826133f1565b602082019050919050565b600060208201905081810360008301526134568161341a565b9050919050565b7f43617073756c65206973207374696c6c206c6f636b6564000000000000000000600082015250565b6000613493601783612835565b915061349e8261345d565b602082019050919050565b600060208201905081810360008301526134c281613486565b9050919050565b7f596f7520617265206e6f74207468652064657369676e61746564206865697200600082015250565b60006134ff601f83612835565b915061350a826134c9565b602082019050919050565b6000602082019050818103600083015261352e816134f2565b9050919050565b7f43617073756c6520616c726561647920636c61696d6564000000000000000000600082015250565b600061356b601783612835565b915061357682613535565b602082019050919050565b6000602082019050818103600083015261359a8161355e565b9050919050565b600081905092915050565b50565b60006135bc6000836135a1565b91506135c7826135ac565b600082019050919050565b60006135dd826135af565b9150819050919050565b7f5472616e73666572206661696c65640000000000000000000000000000000000600082015250565b600061361d600f83612835565b9150613628826135e7565b602082019050919050565b6000602082019050818103600083015261364c81613610565b9050919050565b7f4552433732313a2063616c6c6572206973206e6f7420746f6b656e206f776e6560008201527f72206f7220617070726f76656400000000000000000000000000000000000000602082015250565b60006136af602d83612835565b91506136ba82613653565b604082019050919050565b600060208201905081810360008301526136de816136a2565b9050919050565b7f43617073756c6520646f6573206e6f7420657869737400000000000000000000600082015250565b600061371b601683612835565b9150613726826136e5565b602082019050919050565b6000602082019050818103600083015261374a8161370e565b9050919050565b7f4552433732313a20696e76616c696420746f6b656e2049440000000000000000600082015250565b6000613787601883612835565b915061379282613751565b602082019050919050565b600060208201905081810360008301526137b68161377a565b9050919050565b7f4552433732313a2061646472657373207a65726f206973206e6f74206120766160008201527f6c6964206f776e65720000000000000000000000000000000000000000000000602082015250565b6000613819602983612835565b9150613824826137bd565b604082019050919050565b600060208201905081810360008301526138488161380c565b9050919050565b7f556e6c6f636b2064617465206d75737420626520696e20667574757265000000600082015250565b6000613885601d83612835565b91506138908261384f565b602082019050919050565b600060208201905081810360008301526138b481613878565b9050919050565b7f4e487b7100000000000000000000000000000000000000000000000000000000600052601160045260246000fd5b60006138f582612a48565b91507fffffffffffffffffffffffffffffffffffffffffffffffffffffffffffffffff8203613927576139266138bb565b5b600182019050919050565b60008190508160005260206000209050919050565b60006020601f8301049050919050565b600082821b905092915050565b6000600883026139947fffffffffffffffffffffffffffffffffffffffffffffffffffffffffffffffff82613957565b61399e8683613957565b95508019841693508086168417925050509392505050565b6000819050919050565b60006139db6139d66139d184612a48565b6139b6565b612a48565b9050919050565b6000819050919050565b6139f5836139c0565b613a09613a01826139e2565b848454613964565b825550505050565b600090565b613a1e613a11565b613a298184846139ec565b505050565b5b81811015613a4d57613a42600082613a16565b600181019050613a2f565b5050565b601f821115613a9257613a6381613932565b613a6c84613947565b81016020851015613a7b578190505b613a8f613a8785613947565b830182613a2e565b50505b505050565b600082821c905092915050565b6000613ab560001984600802613a97565b1980831691505092915050565b6000613ace8383613aa4565b9150826002028217905092915050565b613ae7826129a7565b67ffffffffffffffff811115613b0057613aff612e37565b5b613b0a82546131c4565b613b15828285613a51565b600060209050601f831160018114613b485760008415613b36578287015190505b613b408582613ac2565b865550613ba8565b601f198416613b5686613932565b60005b82811015613b7e57848901518255600182019150602085019450602081019050613b59565b86831015613b9b5784890151613b97601f891682613aa4565b8355505b6001600288020188555050505b505050505050565b600060a082019050613bc56000830188612c06565b8181036020830152613bd781876129ed565b90508181036040830152613beb81866129ed565b90508181036060830152613bff81856129ed565b9050613c0e6080830184612c06565b9695505050505050565b7f546f6b656e20646f6573206e6f74206578697374000000000000000000000000600082015250565b6000613c4e601483612835565b9150613c5982613c18565b602082019050919050565b60006020820190508181036000830152613c7d81613c41565b9050919050565b7f4f6e6c792063617073756c65206f776e65722063616e2066756e642069740000600082015250565b6000613cba601e83612835565b9150613cc582613c84565b602082019050919050565b60006020820190508181036000830152613ce981613cad565b9050919050565b6000613cfb82612a48565b9150613d0683612a48565b9250828201905080821115613d1e57613d1d6138bb565b5b92915050565b7f4f776e61626c653a206e6577206f776e657220697320746865207a65726f206160008201527f6464726573730000000000000000000000000000000000000000000000000000602082015250565b6000613d80602683612835565b9150613d8b82613d24565b604082019050919050565b60006020820190508181036000830152613daf81613d73565b9050919050565b7f4552433732313a207472616e736665722066726f6d20696e636f72726563742060008201527f6f776e6572000000000000000000000000000000000000000000000000000000602082015250565b6000613e12602583612835565b9150613e1d82613db6565b604082019050919050565b60006020820190508181036000830152613e4181613e05565b9050919050565b7f4552433732313a207472616e7366657220746f20746865207a65726f2061646460008201527f7265737300000000000000000000000000000000000000000000000000000000602082015250565b6000613ea4602483612835565b9150613eaf82613e48565b604082019050919050565b60006020820190508181036000830152613ed381613e97565b9050919050565b7f4f776e61626c653a2063616c6c6572206973206e6f7420746865206f776e6572600082015250565b6000613f10602083612835565b9150613f1b82613eda565b602082019050919050565b60006020820190508181036000830152613f3f81613f03565b9050919050565b7f4552433732313a20617070726f766520746f2063616c6c657200000000000000600082015250565b6000613f7c601983612835565b9150613f8782613f46565b602082019050919050565b60006020820190508181036000830152613fab81613f6f565b9050919050565b7f4552433732313a207472616e7366657220746f206e6f6e20455243373231526560008201527f63656976657220696d706c656d656e7465720000000000000000000000000000602082015250565b600061400e603283612835565b915061401982613fb2565b604082019050919050565b6000602082019050818103600083015261403d81614001565b9050919050565b600081519050919050565b600082825260208201905092915050565b600061406b82614044565b614075818561404f565b93506140858185602086016129b2565b61408e816129dc565b840191505092915050565b60006080820190506140ae6000830187612add565b6140bb6020830186612add565b6140c86040830185612c06565b81810360608301526140da8184614060565b905095945050505050565b6000815190506140f481612918565b92915050565b6000602082840312156141105761410f6128e2565b5b600061411e848285016140e5565b91505092915050565b7f4552433732313a206d696e7420746f20746865207a65726f2061646472657373600082015250565b600061415d602083612835565b915061416882614127565b602082019050919050565b6000602082019050818103600083015261418c81614150565b9050919050565b7f4552433732313a20746f6b656e20616c7265616479206d696e74656400000000600082015250565b60006141c9601c83612835565b91506141d482614193565b602082019050919050565b600060208201905081810360008301526141f8816141bc565b905091905056fea264697066735822122047af378ccd8cdd9eaa8b740bdf67471bfc9309505187752c5be04008633eb65764736f6c634300081c0033",
  "linkReferences": {},
  "deployedLinkReferences": {}
}