{
  "_format": "hh-sol-artifact-1",
  "contractName": "CapsuleNFT",
  "sourceName": "contracts/CapsuleNFT.sol",
  "abi": [
    {
      "inputs": [],
      "stateMutability": "nonpayable",
      "type": "constructor"
    },
    {
      "anonymous": false,
      "inputs": [
        {
          "indexed": true,
          "internalType": "address",
          "name": "owner",
          "type": "address"
        },
        {
          "indexed": true,
          "internalType": "address",
          "name": "approved",
          "type": "address"
        },
        {
          "indexed": true,
          "internalType": "uint256",
          "name": "tokenId",
          "type": "uint256"
        }
      ],
      "name": "Approval",
      "type": "event"
    },
    {
      "anonymous": false,
      "inputs": [
        {
          "indexed": true,
          "internalType": "address",
          "name": "owner",
          "type": "address"
        },
        {
          "indexed": true,
          "internalType": "address",
          "name": "operator",
          "type": "address"
        },
        {
          "indexed": false,
          "internalType": "bool",
          "name": "approved",
          "type": "bool"
        }
      ],
      "name": "ApprovalForAll",
      "type": "event"
    },
    {
      "anonymous": false,
      "inputs": [
        {
          "indexed": true,
          "internalType": "uint256",
          "name": "tokenId",
          "type": "uint256"
        },
        {
          "indexed": true,
          "internalType": "address",
          "name": "heir",
          "type": "address"
        },
        {
          "indexed": false,
          "internalType": "uint256",
          "name": "value",
          "type": "uint256"
        }
      ],
      "name": "CapsuleClaimed",
      "type": "event"
    },
    {
      "anonymous": false,
      "inputs": [
        {
          "indexed": true,
          "internalType": "uint256",
          "name": "tokenId",
          "type": "uint256"
        },
        {
          "indexed": true,
          "internalType": "address",
          "name": "creator",
          "type": "address"
        },
        {
          "indexed": true,
          "internalType": "address",
          "name": "heir",
          "type": "address"
        },
        {
          "indexed": false,
          "internalType": "uint256",
          "name": "unlockDate",
          "type": "uint256"
        },
        {
          "indexed": false,
          "internalType": "string",
          "name": "uri",
          "type": "string"
        },
        {
          "indexed": false,
          "internalType": "uint256",
          "name": "value",
          "type": "uint256"
        }
      ],
      "name": "CapsuleMinted",
      "type": "event"
    },
    {
      "anonymous": false,
      "inputs": [
        {
          "indexed": true,
          "internalType": "address",
          "name": "previousOwner",
          "type": "address"
        },
        {
          "indexed": true,
          "internalType": "address",
          "name": "newOwner",
          "type": "address"
        }
      ],
      "name": "OwnershipTransferred",
      "type": "event"
    },
    {
      "anonymous": false,
      "inputs": [
        {
          "indexed": true,
          "internalType": "address",
          "name": "from",
          "type": "address"
        },
        {
          "indexed": true,
          "internalType": "address",
          "name": "to",
          "type": "address"
        },
        {
          "indexed": true,
          "internalType": "uint256",
          "name": "tokenId",
          "type": "uint256"
        }
      ],
      "name": "Transfer",
      "type": "event"
    },
    {
      "inputs": [
        {
          "internalType": "uint256",
          "name": "tokenId",
          "type": "uint256"
        }
      ],
      "name": "addFundsToCapsule",
      "outputs": [],
      "stateMutability": "payable",
      "type": "function"
    },
    {
      "inputs": [
        {
          "internalType": "address",
          "name": "to",
          "type": "address"
        },
        {
          "internalType": "uint256",
          "name": "tokenId",
          "type": "uint256"
        }
      ],
      "name": "approve",
      "outputs": [],
      "stateMutability": "nonpayable",
      "type": "function"
    },
    {
      "inputs": [
        {
          "internalType": "address",
          "name": "owner",
          "type": "address"
        }
      ],
      "name": "balanceOf",
      "outputs": [
        {
          "internalType": "uint256",
          "name": "",
          "type": "uint256"
        }
      ],
      "stateMutability": "view",
      "type": "function"
    },
    {
      "inputs": [
        {
          "internalType": "uint256",
          "name": "",
          "type": "uint256"
        }
      ],
      "name": "capsules",
      "outputs": [
        {
          "internalType": "string",
          "name": "uri",
          "type": "string"
        },
        {
          "internalType": "uint256",
          "name": "unlockDate",
          "type": "uint256"
        },
        {
          "internalType": "address",
          "name": "heir",
          "type": "address"
        },
        {
          "internalType": "bool",
          "name": "claimed",
          "type": "bool"
        },
        {
          "internalType": "uint256",
          "name": "balance",
          "type": "uint256"
        }
      ],
      "stateMutability": "view",
      "type": "function"
    },
    {
      "inputs": [
        {
          "internalType": "uint256",
          "name": "tokenId",
          "type": "uint256"
        }
      ],
      "name": "claimCapsule",
      "outputs": [],
      "stateMutability": "nonpayable",
      "type": "function"
    },
    {
      "inputs": [],
      "name": "getAllCapsules",
      "outputs": [
        {
          "internalType": "uint256[]",
          "name": "",
          "type": "uint256[]"
        }
      ],
      "stateMutability": "view",
      "type": "function"
    },
    {
      "inputs": [
        {
          "internalType": "uint256",
          "name": "tokenId",
          "type": "uint256"
        }
      ],
      "name": "getApproved",
      "outputs": [
        {
          "internalType": "address",
          "name": "",
          "type": "address"
        }
      ],
      "stateMutability": "view",
      "type": "function"
    },
    {
      "inputs": [
        {
          "internalType": "uint256",
          "name": "tokenId",
          "type": "uint256"
        }
      ],
      "name": "getCapsule",
      "outputs": [
        {
          "internalType": "string",
          "name": "uri",
          "type": "string"
        },
        {
          "internalType": "uint256",
          "name": "unlockDate",
          "type": "uint256"
        },
        {
          "internalType": "address",
          "name": "heir",
          "type": "address"
        },
        {
          "internalType": "bool",
          "name": "claimed",
          "type": "bool"
        },
        {
          "internalType": "uint256",
          "name": "balance",
          "type": "uint256"
        }
      ],
      "stateMutability": "view",
      "type": "function"
    },
    {
      "inputs": [
        {
          "internalType": "uint256",
          "name": "tokenId",
          "type": "uint256"
        }
      ],
      "name": "getCapsuleBalance",
      "outputs": [
        {
          "internalType": "uint256",
          "name": "",
          "type": "uint256"
        }
      ],
      "stateMutability": "view",
      "type": "function"
    },
    {
      "inputs": [
        {
          "internalType": "address",
          "name": "owner",
          "type": "address"
        },
        {
          "internalType": "address",
          "name": "operator",
          "type": "address"
        }
      ],
      "name": "isApprovedForAll",
      "outputs": [
        {
          "internalType": "bool",
          "name": "",
          "type": "bool"
        }
      ],
      "stateMutability": "view",
      "type": "function"
    },
    {
      "inputs": [
        {
          "internalType": "address",
          "name": "heir",
          "type": "address"
        },
        {
          "internalType": "uint256",
          "name": "unlockDate",
          "type": "uint256"
        },
        {
          "internalType": "string",
          "name": "uri",
          "type": "string"
        }
      ],
      "name": "mintCapsule",
      "outputs": [],
      "stateMutability": "payable",
      "type": "function"
    },
    {
      "inputs": [],
      "name": "name",
      "outputs": [
        {
          "internalType": "string",
          "name": "",
          "type": "string"
        }
      ],
      "stateMutability": "view",
      "type": "function"
    },
    {
      "inputs": [],
      "name": "nextTokenId",
      "outputs": [
        {
          "internalType": "uint256",
          "name": "",
          "type": "uint256"
        }
      ],
      "stateMutability": "view",
      "type": "function"
    },
    {
      "inputs": [],
      "name": "owner",
      "outputs": [
        {
          "internalType": "address",
          "name": "",
          "type": "address"
        }
      ],
      "stateMutability": "view",
      "type": "function"
    },
    {
      "inputs": [
        {
          "internalType": "uint256",
          "name": "tokenId",
          "type": "uint256"
        }
      ],
      "name": "ownerOf",
      "outputs": [
        {
          "internalType": "address",
          "name": "",
          "type": "address"
        }
      ],
      "stateMutability": "view",
      "type": "function"
    },
    {
      "inputs": [],
      "name": "renounceOwnership",
      "outputs": [],
      "stateMutability": "nonpayable",
      "type": "function"
    },
    {
      "inputs": [
        {
          "internalType": "address",
          "name": "from",
          "type": "address"
        },
        {
          "internalType": "address",
          "name": "to",
          "type": "address"
        },
        {
          "internalType": "uint256",
          "name": "tokenId",
          "type": "uint256"
        }
      ],
      "name": "safeTransferFrom",
      "outputs": [],
      "stateMutability": "nonpayable",
      "type": "function"
    },
    {
      "inputs": [
        {
          "internalType": "address",
          "name": "from",
          "type": "address"
        },
        {
          "internalType": "address",
          "name": "to",
          "type": "address"
        },
        {
          "internalType": "uint256",
          "name": "tokenId",
          "type": "uint256"
        },
        {
          "internalType": "bytes",
          "name": "data",
          "type": "bytes"
        }
      ],
      "name": "safeTransferFrom",
      "outputs": [],
      "stateMutability": "nonpayable",
      "type": "function"
    },
    {
      "inputs": [
        {
          "internalType": "address",
          "name": "operator",
          "type": "address"
        },
        {
          "internalType": "bool",
          "name": "approved",
          "type": "bool"
        }
      ],
      "name": "setApprovalForAll",
      "outputs": [],
      "stateMutability": "nonpayable",
      "type": "function"
    },
    {
      "inputs": [
        {
          "internalType": "bytes4",
          "name": "interfaceId",
          "type": "bytes4"
        }
      ],
      "name": "supportsInterface",
      "outputs": [
        {
          "internalType": "bool",
          "name": "",
          "type": "bool"
        }
      ],
      "stateMutability": "view",
      "type": "function"
    },
    {
      "inputs": [],
      "name": "symbol",
      "outputs": [
        {
          "internalType": "string",
          "name": "",
          "type": "string"
        }
      ],
      "stateMutability": "view",
      "type": "function"
    },
    {
      "inputs": [
        {
          "internalType": "uint256",
          "name": "tokenId",
          "type": "uint256"
        }
      ],
      "name": "tokenURI",
      "outputs": [
        {
          "internalType": "string",
          "name": "",
          "type": "string"
        }
      ],
      "stateMutability": "view",
      "type": "function"
    },
    {
      "inputs": [
        {
          "internalType": "address",
          "name": "from",
          "type": "address"
        },
        {
          "internalType": "address",
          "name": "to",
          "type": "address"
        },
        {
          "internalType": "uint256",
          "name": "tokenId",
          "type": "uint256"
        }
      ],
      "name": "transferFrom",
      "outputs": [],
      "stateMutability": "nonpayable",
      "type": "function"
    },
    {
      "inputs": [
        {
          "internalType": "address",
          "name": "newOwner",
          "type": "address"
        }
      ],
      "name": "transferOwnership",
      "outputs": [],
      "stateMutability": "nonpayable",
      "type": "function"
    },
    {
      "inputs": [
        {
          "internalType": "uint256",
          "name": "tokenId",
          "type": "uint256"
        },
        {
          "internalType": "address",
          "name": "newHeir",
          "type": "address"
        }
      ],
      "name": "updateHeir",
      "outputs": [],
      "stateMutability": "nonpayable",
      "type": "function"
    },
    {
      "stateMutability": "payable",
      "type": "receive"
    }
  ],
  "bytecode": "0x608060405234801561001057600080fd5b506040518060400160405280600a81526020017f43617073756c654e4654000000000000000000000000000000000000000000008152506040518060400160405280600481526020017f434e465400000000000000000000000000000000000000000000000000000000815250816000908161008c91906103de565b50806001908161009c91906103de565b5050506100bb6100b06100c060201b60201c565b6100c860201b60201c565b6104b0565b600033905090565b6000600660009054906101000a900473ffffffffffffffffffffffffffffffffffffffff16905081600660006101000a81548173ffffffffffffffffffffffffffffffffffffffff021916908373ffffffffffffffffffffffffffffffffffffffff1602179055508173ffffffffffffffffffffffffffffffffffffffff168173ffffffffffffffffffffffffffffffffffffffff167f8be0079c531659141344cd1fd0a4f28419497f9722a3daafe3b4186f6b6457e060405160405180910390a35050565b600081519050919050565b7f4e487b7100000000000000000000000000000000000000000000000000000000600052604160045260246000fd5b7f4e487b7100000000000000000000000000000000000000000000000000000000600052602260045260246000fd5b6000600282049050600182168061020f57607f821691505b602082108103610222576102216101c8565b5b50919050565b60008190508160005260206000209050919050565b60006020601f8301049050919050565b600082821b905092915050565b60006008830261028a7fffffffffffffffffffffffffffffffffffffffffffffffffffffffffffffffff8261024d565b610294868361024d565b95508019841693508086168417925050509392505050565b6000819050919050565b6000819050919050565b60006102db6102d66102d1846102ac565b6102b6565b6102ac565b9050919050565b6000819050919050565b6102f5836102c0565b610309610301826102e2565b84845461025a565b825550505050565b600090565b61031e610311565b6103298184846102ec565b505050565b5b8181101561034d57610342600082610316565b60018101905061032f565b5050565b601f8211156103925761036381610228565b61036c8461023d565b8101602085101561037b578190505b61038f6103878561023d565b83018261032e565b50505b505050565b600082821c905092915050565b60006103b560001984600802610397565b1980831691505092915050565b60006103ce83836103a4565b9150826002028217905092915050565b6103e78261018e565b67ffffffffffffffff811115610400576103ff610199565b5b61040a82546101f7565b610415828285610351565b600060209050601f8311600181146104485760008415610436578287015190505b61044085826103c2565b8655506104a8565b601f19841661045686610228565b60005b8281101561047e57848901518255600182019150602085019450602081019050610459565b8683101561049b5784890151610497601f8916826103a4565b8355505b6001600288020188555050505b505050505050565b613eec806104bf6000396000f3fe60806040526004361061016a5760003560e01c8063672ea063116100d157806395d89b411161008a578063c87b56dd11610064578063c87b56dd1461058b578063db21d4e0146105c8578063e985e9c5146105e4578063f2fde38b14610621576101aa565b806395d89b411461050e578063a22cb46514610539578063b88d4fde14610562576101aa565b8063672ea063146103fc5780636da789c81461042757806370a0823114610464578063715018a6146104a157806375794a3c146104b85780638da5cb5b146104e3576101aa565b806323b872dd1161012357806323b872dd146102cf5780633aac3858146102f857806342842e0e14610339578063517bbf46146103625780636352211e146103a357806363e5f3e4146103e0576101aa565b806301ffc9a7146101af57806306fdde03146101ec578063081812fc14610217578063095ea7b3146102545780630dbf05e41461027d5780630f7460d3146102a6576101aa565b366101aa576040517f08c379a00000000000000000000000000000000000000000000000000000000081526004016101a190612623565b60405180910390fd5b600080fd5b3480156101bb57600080fd5b506101d660048036038101906101d191906126af565b61064a565b6040516101e391906126f7565b60405180910390f35b3480156101f857600080fd5b5061020161072c565b60405161020e9190612791565b60405180910390f35b34801561022357600080fd5b5061023e600480360381019061023991906127e9565b6107be565b60405161024b9190612857565b60405180910390f35b34801561026057600080fd5b5061027b6004803603810190610276919061289e565b610804565b005b34801561028957600080fd5b506102a4600480360381019061029f91906128de565b61091b565b005b3480156102b257600080fd5b506102cd60048036038101906102c891906127e9565b610a42565b005b3480156102db57600080fd5b506102f660048036038101906102f1919061291e565b610d1a565b005b34801561030457600080fd5b5061031f600480360381019061031a91906127e9565b610d7a565b604051610330959493929190612980565b60405180910390f35b34801561034557600080fd5b50610360600480360381019061035b919061291e565b610f30565b005b34801561036e57600080fd5b50610389600480360381019061038491906127e9565b610f50565b60405161039a959493929190612980565b60405180910390f35b3480156103af57600080fd5b506103ca60048036038101906103c591906127e9565b61103b565b6040516103d79190612857565b60405180910390f35b6103fa60048036038101906103f59190612b0f565b6110c1565b005b34801561040857600080fd5b506104116112a8565b60405161041e9190612c3c565b60405180910390f35b34801561043357600080fd5b5061044e600480360381019061044991906127e9565b611300565b60405161045b9190612c5e565b60405180910390f35b34801561047057600080fd5b5061048b60048036038101906104869190612c79565b611368565b6040516104989190612c5e565b60405180910390f35b3480156104ad57600080fd5b506104b661141f565b005b3480156104c457600080fd5b506104cd611433565b6040516104da9190612c5e565b60405180910390f35b3480156104ef57600080fd5b506104f8611439565b6040516105059190612857565b60405180910390f35b34801561051a57600080fd5b50610523611463565b6040516105309190612791565b60405180910390f35b34801561054557600080fd5b50610560600480360381019061055b9190612cd2565b6114f5565b005b34801561056e57600080fd5b5061058960048036038101906105849190612db3565b61150b565b005b34801561059757600080fd5b506105b260048036038101906105ad91906127e9565b61156d565b6040516105bf9190612791565b60405180910390f35b6105e260048036038101906105dd91906127e9565b61165d565b005b3480156105f057600080fd5b5061060b60048036038101906106069190612e36565b6117af565b60405161061891906126f7565b60405180910390f35b34801561062d57600080fd5b5061064860048036038101906106439190612c79565b611843565b005b60007f80ac58cd000000000000000000000000000000000000000000000000000000007bffffffffffffffffffffffffffffffffffffffffffffffffffffffff1916827bffffffffffffffffffffffffffffffffffffffffffffffffffffffff1916148061071557507f5b5e139f000000000000000000000000000000000000000000000000000000007bffffffffffffffffffffffffffffffffffffffffffffffffffffffff1916827bffffffffffffffffffffffffffffffffffffffffffffffffffffffff1916145b806107255750610724826118c6565b5b9050919050565b60606000805461073b90612ea5565b80601f016020809104026020016040519081016040528092919081815260200182805461076790612ea5565b80156107b45780601f10610789576101008083540402835291602001916107b4565b820191906000526020600020905b81548152906001019060200180831161079757829003601f168201915b5050505050905090565b60006107c982611930565b6004600083815260200190815260200160002060009054906101000a900473ffffffffffffffffffffffffffffffffffffffff169050919050565b600061080f8261103b565b90508073ffffffffffffffffffffffffffffffffffffffff168373ffffffffffffffffffffffffffffffffffffffff160361087f576040517f08c379a000000000000000000000000000000000000000000000000000000000815260040161087690612f48565b60405180910390fd5b8073ffffffffffffffffffffffffffffffffffffffff1661089e61197b565b73ffffffffffffffffffffffffffffffffffffffff1614806108cd57506108cc816108c761197b565b6117af565b5b61090c576040517f08c379a000000000000000000000000000000000000000000000000000000000815260040161090390612fda565b60405180910390fd5b6109168383611983565b505050565b3373ffffffffffffffffffffffffffffffffffffffff1661093b8361103b565b73ffffffffffffffffffffffffffffffffffffffff1614610991576040517f08c379a000000000000000000000000000000000000000000000000000000000815260040161098890613046565b60405180910390fd5b600860008381526020019081526020016000206001015442106109e9576040517f08c379a00000000000000000000000000000000000000000000000000000000081526004016109e0906130b2565b60405180910390fd5b806008600084815260200190815260200160002060020160006101000a81548173ffffffffffffffffffffffffffffffffffffffff021916908373ffffffffffffffffffffffffffffffffffffffff1602179055505050565b6000600860008381526020019081526020016000209050610a6282611a3c565b610aa1576040517f08c379a0000000000000000000000000000000000000000000000000000000008152600401610a989061311e565b60405180910390fd5b8060010154421015610ae8576040517f08c379a0000000000000000000000000000000000000000000000000000000008152600401610adf9061318a565b60405180910390fd5b8060020160009054906101000a900473ffffffffffffffffffffffffffffffffffffffff1673ffffffffffffffffffffffffffffffffffffffff163373ffffffffffffffffffffffffffffffffffffffff1614610b7a576040517f08c379a0000000000000000000000000000000000000000000000000000000008152600401610b71906131f6565b60405180910390fd5b8060020160149054906101000a900460ff1615610bcc576040517f08c379a0000000000000000000000000000000000000000000000000000000008152600401610bc390613262565b60405180910390fd5b60018160020160146101000a81548160ff021916908315150217905550610bfc610bf58361103b565b3384611a7d565b6000816003015490506000811115610cc6576000826003018190555060003373ffffffffffffffffffffffffffffffffffffffff1682604051610c3e906132b3565b60006040518083038185875af1925050503d8060008114610c7b576040519150601f19603f3d011682016040523d82523d6000602084013e610c80565b606091505b5050905080610cc4576040517f08c379a0000000000000000000000000000000000000000000000000000000008152600401610cbb90613314565b60405180910390fd5b505b3373ffffffffffffffffffffffffffffffffffffffff16837f062c8e3f61257cd5800ff8d66114a1d8783e87e8517af07d7d81e18a3b09d3a383604051610d0d9190612c5e565b60405180910390a3505050565b610d2b610d2561197b565b82611d76565b610d6a576040517f08c379a0000000000000000000000000000000000000000000000000000000008152600401610d61906133a6565b60405180910390fd5b610d75838383611a7d565b505050565b6060600080600080610d8b86611a3c565b610dca576040517f08c379a0000000000000000000000000000000000000000000000000000000008152600401610dc190613412565b60405180910390fd5b6000600860008881526020019081526020016000206040518060a0016040529081600082018054610dfa90612ea5565b80601f0160208091040260200160405190810160405280929190818152602001828054610e2690612ea5565b8015610e735780601f10610e4857610100808354040283529160200191610e73565b820191906000526020600020905b815481529060010190602001808311610e5657829003601f168201915b50505050508152602001600182015481526020016002820160009054906101000a900473ffffffffffffffffffffffffffffffffffffffff1673ffffffffffffffffffffffffffffffffffffffff1673ffffffffffffffffffffffffffffffffffffffff1681526020016002820160149054906101000a900460ff16151515158152602001600382015481525050905080600001518160200151826040015183606001518460800151955095509550955095505091939590929450565b610f4b8383836040518060200160405280600081525061150b565b505050565b6008602052806000526040600020600091509050806000018054610f7390612ea5565b80601f0160208091040260200160405190810160405280929190818152602001828054610f9f90612ea5565b8015610fec5780601f10610fc157610100808354040283529160200191610fec565b820191906000526020600020905b815481529060010190602001808311610fcf57829003601f168201915b5050505050908060010154908060020160009054906101000a900473ffffffffffffffffffffffffffffffffffffffff16908060020160149054906101000a900460ff16908060030154905085565b60008061104783611e0b565b9050600073ffffffffffffffffffffffffffffffffffffffff168173ffffffffffffffffffffffffffffffffffffffff16036110b8576040517f08c379a00000000000000000000000000000000000000000000000000000000081526004016110af9061347e565b60405180910390fd5b80915050919050565b428211611103576040517f08c379a00000000000000000000000000000000000000000000000000000000081526004016110fa906134ea565b60405180910390fd5b60006007600081548092919061111890613539565b9190505590506111283382611e48565b6040518060a001604052808381526020018481526020018573ffffffffffffffffffffffffffffffffffffffff16815260200160001515815260200134815250600860008381526020019081526020016000206000820151816000019081611190919061372d565b506020820151816001015560408201518160020160006101000a81548173ffffffffffffffffffffffffffffffffffffffff021916908373ffffffffffffffffffffffffffffffffffffffff16021790555060608201518160020160146101000a81548160ff0219169083151502179055506080820151816003015590505060098190806001815401808255809150506001900390600052602060002001600090919091909150558373ffffffffffffffffffffffffffffffffffffffff163373ffffffffffffffffffffffffffffffffffffffff16827fe44881833663604030c8a06e2a67588666526d94b6bcd84e9311aa1bb2fdf08f86863460405161129a939291906137ff565b60405180910390a450505050565b606060098054806020026020016040519081016040528092919081815260200182805480156112f657602002820191906000526020600020905b8154815260200190600101908083116112e2575b5050505050905090565b600061130b82611a3c565b61134a576040517f08c379a000000000000000000000000000000000000000000000000000000000815260040161134190613412565b60405180910390fd5b60086000838152602001908152602001600020600301549050919050565b60008073ffffffffffffffffffffffffffffffffffffffff168273ffffffffffffffffffffffffffffffffffffffff16036113d8576040517f08c379a00000000000000000000000000000000000000000000000000000000081526004016113cf906138af565b60405180910390fd5b600360008373ffffffffffffffffffffffffffffffffffffffff1673ffffffffffffffffffffffffffffffffffffffff168152602001908152602001600020549050919050565b611427611e66565b6114316000611ee4565b565b60075481565b6000600660009054906101000a900473ffffffffffffffffffffffffffffffffffffffff16905090565b60606001805461147290612ea5565b80601f016020809104026020016040519081016040528092919081815260200182805461149e90612ea5565b80156114eb5780601f106114c0576101008083540402835291602001916114eb565b820191906000526020600020905b8154815290600101906020018083116114ce57829003601f168201915b5050505050905090565b61150761150061197b565b8383611faa565b5050565b61151c61151661197b565b83611d76565b61155b576040517f08c379a0000000000000000000000000000000000000000000000000000000008152600401611552906133a6565b60405180910390fd5b61156784848484612116565b50505050565b606061157882611a3c565b6115b7576040517f08c379a00000000000000000000000000000000000000000000000000000000081526004016115ae9061391b565b60405180910390fd5b6008600083815260200190815260200160002060000180546115d890612ea5565b80601f016020809104026020016040519081016040528092919081815260200182805461160490612ea5565b80156116515780601f1061162657610100808354040283529160200191611651565b820191906000526020600020905b81548152906001019060200180831161163457829003601f168201915b50505050509050919050565b61166681611a3c565b6116a5576040517f08c379a000000000000000000000000000000000000000000000000000000000815260040161169c9061311e565b60405180910390fd5b3373ffffffffffffffffffffffffffffffffffffffff166116c58261103b565b73ffffffffffffffffffffffffffffffffffffffff161461171b576040517f08c379a000000000000000000000000000000000000000000000000000000000815260040161171290613987565b60405180910390fd5b6008600082815260200190815260200160002060020160149054906101000a900460ff161561177f576040517f08c379a000000000000000000000000000000000000000000000000000000000815260040161177690613262565b60405180910390fd5b346008600083815260200190815260200160002060030160008282546117a591906139a7565b9250508190555050565b6000600560008473ffffffffffffffffffffffffffffffffffffffff1673ffffffffffffffffffffffffffffffffffffffff16815260200190815260200160002060008373ffffffffffffffffffffffffffffffffffffffff1673ffffffffffffffffffffffffffffffffffffffff16815260200190815260200160002060009054906101000a900460ff16905092915050565b61184b611e66565b600073ffffffffffffffffffffffffffffffffffffffff168173ffffffffffffffffffffffffffffffffffffffff16036118ba576040517f08c379a00000000000000000000000000000000000000000000000000000000081526004016118b190613a4d565b60405180910390fd5b6118c381611ee4565b50565b60007f01ffc9a7000000000000000000000000000000000000000000000000000000007bffffffffffffffffffffffffffffffffffffffffffffffffffffffff1916827bffffffffffffffffffffffffffffffffffffffffffffffffffffffff1916149050919050565b61193981611a3c565b611978576040517f08c379a000000000000000000000000000000000000000000000000000000000815260040161196f9061347e565b60405180910390fd5b50565b600033905090565b816004600083815260200190815260200160002060006101000a81548173ffffffffffffffffffffffffffffffffffffffff021916908373ffffffffffffffffffffffffffffffffffffffff160217905550808273ffffffffffffffffffffffffffffffffffffffff166119f68361103b565b73ffffffffffffffffffffffffffffffffffffffff167f8c5be1e5ebec7d5bd14f71427d1e84f3dd0314c0f7b2291e5b200ac8c7c3b92560405160405180910390a45050565b60008073ffffffffffffffffffffffffffffffffffffffff16611a5e83611e0b565b73ffffffffffffffffffffffffffffffffffffffff1614159050919050565b8273ffffffffffffffffffffffffffffffffffffffff16611a9d8261103b565b73ffffffffffffffffffffffffffffffffffffffff1614611af3576040517f08c379a0000000000000000000000000000000000000000000000000000000008152600401611aea90613adf565b60405180910390fd5b600073ffffffffffffffffffffffffffffffffffffffff168273ffffffffffffffffffffffffffffffffffffffff1603611b62576040517f08c379a0000000000000000000000000000000000000000000000000000000008152600401611b5990613b71565b60405180910390fd5b611b6f8383836001612172565b8273ffffffffffffffffffffffffffffffffffffffff16611b8f8261103b565b73ffffffffffffffffffffffffffffffffffffffff1614611be5576040517f08c379a0000000000000000000000000000000000000000000000000000000008152600401611bdc90613adf565b60405180910390fd5b6004600082815260200190815260200160002060006101000a81549073ffffffffffffffffffffffffffffffffffffffff02191690556001600360008573ffffffffffffffffffffffffffffffffffffffff1673ffffffffffffffffffffffffffffffffffffffff168152602001908152602001600020600082825403925050819055506001600360008473ffffffffffffffffffffffffffffffffffffffff1673ffffffffffffffffffffffffffffffffffffffff16815260200190815260200160002060008282540192505081905550816002600083815260200190815260200160002060006101000a81548173ffffffffffffffffffffffffffffffffffffffff021916908373ffffffffffffffffffffffffffffffffffffffff160217905550808273ffffffffffffffffffffffffffffffffffffffff168473ffffffffffffffffffffffffffffffffffffffff167fddf252ad1be2c89b69c2b068fc378daa952ba7f163c4a11628f55a4df523b3ef60405160405180910390a4611d718383836001612178565b505050565b600080611d828361103b565b90508073ffffffffffffffffffffffffffffffffffffffff168473ffffffffffffffffffffffffffffffffffffffff161480611dc45750611dc381856117af565b5b80611e0257508373ffffffffffffffffffffffffffffffffffffffff16611dea846107be565b73ffffffffffffffffffffffffffffffffffffffff16145b91505092915050565b60006002600083815260200190815260200160002060009054906101000a900473ffffffffffffffffffffffffffffffffffffffff169050919050565b611e6282826040518060200160405280600081525061217e565b5050565b611e6e61197b565b73ffffffffffffffffffffffffffffffffffffffff16611e8c611439565b73ffffffffffffffffffffffffffffffffffffffff1614611ee2576040517f08c379a0000000000000000000000000000000000000000000000000000000008152600401611ed990613bdd565b60405180910390fd5b565b6000600660009054906101000a900473ffffffffffffffffffffffffffffffffffffffff16905081600660006101000a81548173ffffffffffffffffffffffffffffffffffffffff021916908373ffffffffffffffffffffffffffffffffffffffff1602179055508173ffffffffffffffffffffffffffffffffffffffff168173ffffffffffffffffffffffffffffffffffffffff167f8be0079c531659141344cd1fd0a4f28419497f9722a3daafe3b4186f6b6457e060405160405180910390a35050565b8173ffffffffffffffffffffffffffffffffffffffff168373ffffffffffffffffffffffffffffffffffffffff1603612018576040517f08c379a000000000000000000000000000000000000000000000000000000000815260040161200f90613c49565b60405180910390fd5b80600560008573ffffffffffffffffffffffffffffffffffffffff1673ffffffffffffffffffffffffffffffffffffffff16815260200190815260200160002060008473ffffffffffffffffffffffffffffffffffffffff1673ffffffffffffffffffffffffffffffffffffffff16815260200190815260200160002060006101000a81548160ff0219169083151502179055508173ffffffffffffffffffffffffffffffffffffffff168373ffffffffffffffffffffffffffffffffffffffff167f17307eab39ab6107e8899845ad3d59bd9653f200f220920489ca2b5937696c318360405161210991906126f7565b60405180910390a3505050565b612121848484611a7d565b61212d848484846121d9565b61216c576040517f08c379a000000000000000000000000000000000000000000000000000000000815260040161216390613cdb565b60405180910390fd5b50505050565b50505050565b50505050565b6121888383612360565b61219560008484846121d9565b6121d4576040517f08c379a00000000000000000000000000000000000000000000000000000000081526004016121cb90613cdb565b60405180910390fd5b505050565b60006121fa8473ffffffffffffffffffffffffffffffffffffffff1661257d565b15612353578373ffffffffffffffffffffffffffffffffffffffff1663150b7a0261222361197b565b8786866040518563ffffffff1660e01b81526004016122459493929190613d50565b6020604051808303816000875af192505050801561228157506040513d601f19601f8201168201806040525081019061227e9190613db1565b60015b612303573d80600081146122b1576040519150601f19603f3d011682016040523d82523d6000602084013e6122b6565b606091505b5060008151036122fb576040517f08c379a00000000000000000000000000000000000000000000000000000000081526004016122f290613cdb565b60405180910390fd5b805181602001fd5b63150b7a0260e01b7bffffffffffffffffffffffffffffffffffffffffffffffffffffffff1916817bffffffffffffffffffffffffffffffffffffffffffffffffffffffff191614915050612358565b600190505b949350505050565b600073ffffffffffffffffffffffffffffffffffffffff168273ffffffffffffffffffffffffffffffffffffffff16036123cf576040517f08c379a00000000000000000000000000000000000000000000000000000000081526004016123c690613e2a565b60405180910390fd5b6123d881611a3c565b15612418576040517f08c379a000000000000000000000000000000000000000000000000000000000815260040161240f90613e96565b60405180910390fd5b612426600083836001612172565b61242f81611a3c565b1561246f576040517f08c379a000000000000000000000000000000000000000000000000000000000815260040161246690613e96565b60405180910390fd5b6001600360008473ffffffffffffffffffffffffffffffffffffffff1673ffffffffffffffffffffffffffffffffffffffff16815260200190815260200160002060008282540192505081905550816002600083815260200190815260200160002060006101000a81548173ffffffffffffffffffffffffffffffffffffffff021916908373ffffffffffffffffffffffffffffffffffffffff160217905550808273ffffffffffffffffffffffffffffffffffffffff16600073ffffffffffffffffffffffffffffffffffffffff167fddf252ad1be2c89b69c2b068fc378daa952ba7f163c4a11628f55a4df523b3ef60405160405180910390a4612579600083836001612178565b5050565b6000808273ffffffffffffffffffffffffffffffffffffffff163b119050919050565b600082825260208201905092915050565b7f5573652061646446756e6473546f43617073756c6520746f2066756e6420612060008201527f63617073756c6500000000000000000000000000000000000000000000000000602082015250565b600061260d6027836125a0565b9150612618826125b1565b604082019050919050565b6000602082019050818103600083015261263c81612600565b9050919050565b6000604051905090565b600080fd5b600080fd5b60007fffffffff0000000000000000000000000000000000000000000000000000000082169050919050565b61268c81612657565b811461269757600080fd5b50565b6000813590506126a981612683565b92915050565b6000602082840312156126c5576126c461264d565b5b60006126d38482850161269a565b91505092915050565b60008115159050919050565b6126f1816126dc565b82525050565b600060208201905061270c60008301846126e8565b92915050565b600081519050919050565b60005b8381101561273b578082015181840152602081019050612720565b60008484015250505050565b6000601f19601f8301169050919050565b600061276382612712565b61276d81856125a0565b935061277d81856020860161271d565b61278681612747565b840191505092915050565b600060208201905081810360008301526127ab8184612758565b905092915050565b6000819050919050565b6127c6816127b3565b81146127d157600080fd5b50565b6000813590506127e3816127bd565b92915050565b6000602082840312156127ff576127fe61264d565b5b600061280d848285016127d4565b91505092915050565b600073ffffffffffffffffffffffffffffffffffffffff82169050919050565b600061284182612816565b9050919050565b61285181612836565b82525050565b600060208201905061286c6000830184612848565b92915050565b61287b81612836565b811461288657600080fd5b50565b60008135905061289881612872565b92915050565b600080604083850312156128b5576128b461264d565b5b60006128c385828601612889565b92505060206128d4858286016127d4565b9150509250929050565b600080604083850312156128f5576128f461264d565b5b6000612903858286016127d4565b925050602061291485828601612889565b9150509250929050565b6000806000606084860312156129375761293661264d565b5b600061294586828701612889565b935050602061295686828701612889565b9250506040612967868287016127d4565b9150509250925092565b61297a816127b3565b82525050565b600060a082019050818103600083015261299a8188612758565b90506129a96020830187612971565b6129b66040830186612848565b6129c360608301856126e8565b6129d06080830184612971565b9695505050505050565b600080fd5b600080fd5b7f4e487b7100000000000000000000000000000000000000000000000000000000600052604160045260246000fd5b612a1c82612747565b810181811067ffffffffffffffff82111715612a3b57612a3a6129e4565b5b80604052505050565b6000612a4e612643565b9050612a5a8282612a13565b919050565b600067ffffffffffffffff821115612a7a57612a796129e4565b5b612a8382612747565b9050602081019050919050565b82818337600083830152505050565b6000612ab2612aad84612a5f565b612a44565b905082815260208101848484011115612ace57612acd6129df565b5b612ad9848285612a90565b509392505050565b600082601f830112612af657612af56129da565b5b8135612b06848260208601612a9f565b91505092915050565b600080600060608486031215612b2857612b2761264d565b5b6000612b3686828701612889565b9350506020612b47868287016127d4565b925050604084013567ffffffffffffffff811115612b6857612b67612652565b5b612b7486828701612ae1565b9150509250925092565b600081519050919050565b600082825260208201905092915050565b6000819050602082019050919050565b612bb3816127b3565b82525050565b6000612bc58383612baa565b60208301905092915050565b6000602082019050919050565b6000612be982612b7e565b612bf38185612b89565b9350612bfe83612b9a565b8060005b83811015612c2f578151612c168882612bb9565b9750612c2183612bd1565b925050600181019050612c02565b5085935050505092915050565b60006020820190508181036000830152612c568184612bde565b905092915050565b6000602082019050612c736000830184612971565b92915050565b600060208284031215612c8f57612c8e61264d565b5b6000612c9d84828501612889565b91505092915050565b612caf816126dc565b8114612cba57600080fd5b50565b600081359050612ccc81612ca6565b92915050565b60008060408385031215612ce957612ce861264d565b5b6000612cf785828601612889565b9250506020612d0885828601612cbd565b9150509250929050565b600067ffffffffffffffff821115612d2d57612d2c6129e4565b5b612d3682612747565b9050602081019050919050565b6000612d56612d5184612d12565b612a44565b905082815260208101848484011115612d7257612d716129df565b5b612d7d848285612a90565b509392505050565b600082601f830112612d9a57612d996129da565b5b8135612daa848260208601612d43565b91505092915050565b60008060008060808587031215612dcd57612dcc61264d565b5b6000612ddb87828801612889565b9450506020612dec87828801612889565b9350506040612dfd878288016127d4565b925050606085013567ffffffffffffffff811115612e1e57612e1d612652565b5b612e2a87828801612d85565b91505092959194509250565b60008060408385031215612e4d57612e4c61264d565b5b6000612e5b85828601612889565b9250506020612e6c85828601612889565b9150509250929050565b7f4e487b7100000000000000000000000000000000000000000000000000000000600052602260045260246000fd5b60006002820490506001821680612ebd57607f821691505b602082108103612ed057612ecf612e76565b5b50919050565b7f4552433732313a20617070726f76616c20746f2063757272656e74206f776e6560008201527f7200000000000000000000000000000000000000000000000000000000000000602082015250565b6000612f326021836125a0565b9150612f3d82612ed6565b604082019050919050565b60006020820190508181036000830152612f6181612f25565b9050919050565b7f4552433732313a20617070726f76652063616c6c6572206973206e6f7420746f60008201527f6b656e206f776e6572206f7220617070726f76656420666f7220616c6c000000602082015250565b6000612fc4603d836125a0565b9150612fcf82612f68565b604082019050919050565b60006020820190508181036000830152612ff381612fb7565b9050919050565b7f4e6f7420746f6b656e206f776e65720000000000000000000000000000000000600082015250565b6000613030600f836125a0565b915061303b82612ffa565b602082019050919050565b6000602082019050818103600083015261305f81613023565b9050919050565b7f43617073756c6520616c726561647920756e6c6f636b65640000000000000000600082015250565b600061309c6018836125a0565b91506130a782613066565b602082019050919050565b600060208201905081810360008301526130cb8161308f565b9050919050565b7f496e76616c696420746f6b656e00000000000000000000000000000000000000600082015250565b6000613108600d836125a0565b9150613113826130d2565b602082019050919050565b60006020820190508181036000830152613137816130fb565b9050919050565b7f43617073756c65206973207374696c6c206c6f636b6564000000000000000000600082015250565b60006131746017836125a0565b915061317f8261313e565b602082019050919050565b600060208201905081810360008301526131a381613167565b9050919050565b7f596f7520617265206e6f74207468652064657369676e61746564206865697200600082015250565b60006131e0601f836125a0565b91506131eb826131aa565b602082019050919050565b6000602082019050818103600083015261320f816131d3565b9050919050565b7f43617073756c6520616c726561647920636c61696d6564000000000000000000600082015250565b600061324c6017836125a0565b915061325782613216565b602082019050919050565b6000602082019050818103600083015261327b8161323f565b9050919050565b600081905092915050565b50565b600061329d600083613282565b91506132a88261328d565b600082019050919050565b60006132be82613290565b9150819050919050565b7f5472616e73666572206661696c65640000000000000000000000000000000000600082015250565b60006132fe600f836125a0565b9150613309826132c8565b602082019050919050565b6000602082019050818103600083015261332d816132f1565b9050919050565b7f4552433732313a2063616c6c6572206973206e6f7420746f6b656e206f776e6560008201527f72206f7220617070726f76656400000000000000000000000000000000000000602082015250565b6000613390602d836125a0565b915061339b82613334565b604082019050919050565b600060208201905081810360008301526133bf81613383565b9050919050565b7f43617073756c6520646f6573206e6f7420657869737400000000000000000000600082015250565b60006133fc6016836125a0565b9150613407826133c6565b602082019050919050565b6000602082019050818103600083015261342b816133ef565b9050919050565b7f4552433732313a20696e76616c696420746f6b656e2049440000000000000000600082015250565b60006134686018836125a0565b915061347382613432565b602082019050919050565b600060208201905081810360008301526134978161345b565b9050919050565b7f556e6c6f636b2064617465206d75737420626520696e20667574757265000000600082015250565b60006134d4601d836125a0565b91506134df8261349e565b602082019050919050565b60006020820190508181036000830152613503816134c7565b9050919050565b7f4e487b7100000000000000000000000000000000000000000000000000000000600052601160045260246000fd5b6000613544826127b3565b91507fffffffffffffffffffffffffffffffffffffffffffffffffffffffffffffffff82036135765761357561350a565b5b600182019050919050565b60008190508160005260206000209050919050565b60006020601f8301049050919050565b600082821b905092915050565b6000600883026135e37fffffffffffffffffffffffffffffffffffffffffffffffffffffffffffffffff826135a6565b6135ed86836135a6565b95508019841693508086168417925050509392505050565b6000819050919050565b600061362a613625613620846127b3565b613605565b6127b3565b9050919050565b6000819050919050565b6136448361360f565b61365861365082613631565b8484546135b3565b825550505050565b600090565b61366d613660565b61367881848461363b565b505050565b5b8181101561369c57613691600082613665565b60018101905061367e565b5050565b601f8211156136e1576136b281613581565b6136bb84613596565b810160208510156136ca578190505b6136de6136d685613596565b83018261367d565b50505b505050565b600082821c905092915050565b6000613704600019846008026136e6565b1980831691505092915050565b600061371d83836136f3565b9150826002028217905092915050565b61373682612712565b67ffffffffffffffff81111561374f5761374e6129e4565b5b6137598254612ea5565b6137648282856136a0565b600060209050601f8311600181146137975760008415613785578287015190505b61378f8582613711565b8655506137f7565b601f1984166137a586613581565b60005b828110156137cd578489015182556001820191506020850194506020810190506137a8565b868310156137ea57848901516137e6601f8916826136f3565b8355505b6001600288020188555050505b505050505050565b60006060820190506138146000830186612971565b81810360208301526138268185612758565b90506138356040830184612971565b949350505050565b7f4552433732313a2061646472657373207a65726f206973206e6f74206120766160008201527f6c6964206f776e65720000000000000000000000000000000000000000000000602082015250565b60006138996029836125a0565b91506138a48261383d565b604082019050919050565b600060208201905081810360008301526138c88161388c565b9050919050565b7f546f6b656e20646f6573206e6f74206578697374000000000000000000000000600082015250565b60006139056014836125a0565b9150613910826138cf565b602082019050919050565b60006020820190508181036000830152613934816138f8565b9050919050565b7f4f6e6c792063617073756c65206f776e65722063616e2066756e642069740000600082015250565b6000613971601e836125a0565b915061397c8261393b565b602082019050919050565b600060208201905081810360008301526139a081613964565b9050919050565b60006139b2826127b3565b91506139bd836127b3565b92508282019050808211156139d5576139d461350a565b5b92915050565b7f4f776e61626c653a206e6577206f776e657220697320746865207a65726f206160008201527f6464726573730000000000000000000000000000000000000000000000000000602082015250565b6000613a376026836125a0565b9150613a42826139db565b604082019050919050565b60006020820190508181036000830152613a6681613a2a565b9050919050565b7f4552433732313a207472616e736665722066726f6d20696e636f72726563742060008201527f6f776e6572000000000000000000000000000000000000000000000000000000602082015250565b6000613ac96025836125a0565b9150613ad482613a6d565b604082019050919050565b60006020820190508181036000830152613af881613abc565b9050919050565b7f4552433732313a207472616e7366657220746f20746865207a65726f2061646460008201527f7265737300000000000000000000000000000000000000000000000000000000602082015250565b6000613b5b6024836125a0565b9150613b6682613aff565b604082019050919050565b60006020820190508181036000830152613b8a81613b4e565b9050919050565b7f4f776e61626c653a2063616c6c6572206973206e6f7420746865206f776e6572600082015250565b6000613bc76020836125a0565b9150613bd282613b91565b602082019050919050565b60006020820190508181036000830152613bf681613bba565b9050919050565b7f4552433732313a20617070726f766520746f2063616c6c657200000000000000600082015250565b6000613c336019836125a0565b9150613c3e82613bfd565b602082019050919050565b60006020820190508181036000830152613c6281613c26565b9050919050565b7f4552433732313a207472616e7366657220746f206e6f6e20455243373231526560008201527f63656976657220696d706c656d656e7465720000000000000000000000000000602082015250565b6000613cc56032836125a0565b9150613cd082613c69565b604082019050919050565b60006020820190508181036000830152613cf481613cb8565b9050919050565b600081519050919050565b600082825260208201905092915050565b6000613d2282613cfb565b613d2c8185613d06565b9350613d3c81856020860161271d565b613d4581612747565b840191505092915050565b6000608082019050613d656000830187612848565b613d726020830186612848565b613d7f6040830185612971565b8181036060830152613d918184613d17565b905095945050505050565b600081519050613dab81612683565b92915050565b600060208284031215613dc757613dc661264d565b5b6000613dd584828501613d9c565b91505092915050565b7f4552433732313a206d696e7420746f20746865207a65726f2061646472657373600082015250565b6000613e146020836125a0565b9150613e1f82613dde565b602082019050919050565b60006020820190508181036000830152613e4381613e07565b9050919050565b7f4552433732313a20746f6b656e20616c7265616479206d696e74656400000000600082015250565b6000613e80601c836125a0565b9150613e8b82613e4a565b602082019050919050565b60006020820190508181036000830152613eaf81613e73565b905091905056fea2646970667358221220e79aba403e6d5891cacf6b83748ef419af9818bac56dbca22599a65d4c8bc4ed64736f6c634300081c0033",
  "linkReferences": {},
  "deployedLinkReferences": {}
}