{
  "_format": "hh-sol-artifact-1",
  "contractName": "CapsuleNFT",
  "sourceName": "contracts/CapsuleNFT.sol",
  "abi": [
    {
      "inputs": [],
      "stateMutability": "nonpayable",
      "type": "constructor"
    },
    {
      "anonymous": false,
      "inputs": [
        {
          "indexed": true,
          "internalType": "address",
          "name": "owner",
          "type": "address"
        },
        {
          "indexed": true,
          "internalType": "address",
          "name": "approved",
          "type": "address"
        },
        {
          "indexed": true,
          "internalType": "uint256",
          "name": "tokenId",
          "type": "uint256"
        }
      ],
      "name": "Approval",
      "type": "event"
    },
    {
      "anonymous": false,
      "inputs": [
        {
          "indexed": true,
          "internalType": "address",
          "name": "owner",
          "type": "address"
        },
        {
          "indexed": true,
          "internalType": "address",
          "name": "operator",
          "type": "address"
        },
        {
          "indexed": false,
          "internalType": "bool",
          "name": "approved",
          "type": "bool"
        }
      ],
      "name": "ApprovalForAll",
      "type": "event"
    },
    {
      "anonymous": false,
      "inputs": [
        {
          "indexed": true,
          "internalType": "uint256",
          "name": "tokenId",
          "type": "uint256"
        },
        {
          "indexed": true,
          "internalType": "address",
          "name": "heir",
          "type": "address"
        },
        {
          "indexed": false,
          "internalType": "uint256",
          "name": "value",
          "type": "uint256"
        }
      ],
      "name": "CapsuleClaimed",
      "type": "event"
    },
    {
      "anonymous": false,
      "inputs": [
        {
          "indexed": true,
          "internalType": "uint256",
          "name": "tokenId",
          "type": "uint256"
        },
        {
          "indexed": true,
          "internalType": "address",
          "name": "creator",
          "type": "address"
        },
        {
          "indexed": true,
          "internalType": "address",
          "name": "heir",
          "type": "address"
        },
        {
          "indexed": false,
          "internalType": "uint256",
          "name": "unlockDate",
          "type": "uint256"
        },
        {
          "indexed": false,
          "internalType": "string",
          "name": "name",
          "type": "string"
        },
        {
          "indexed": false,
          "internalType": "string",
          "name": "description",
          "type": "string"
        },
        {
          "indexed": false,
          "internalType": "string",
          "name": "uri",
          "type": "string"
        },
        {
          "indexed": false,
          "internalType": "uint256",
          "name": "value",
          "type": "uint256"
        }
      ],
      "name": "CapsuleMinted",
      "type": "event"
    },
    {
      "anonymous": false,
      "inputs": [
        {
          "indexed": true,
          "internalType": "address",
          "name": "previousOwner",
          "type": "address"
        },
        {
          "indexed": true,
          "internalType": "address",
          "name": "newOwner",
          "type": "address"
        }
      ],
      "name": "OwnershipTransferred",
      "type": "event"
    },
    {
      "anonymous": false,
      "inputs": [
        {
          "indexed": true,
          "internalType": "address",
          "name": "from",
          "type": "address"
        },
        {
          "indexed": true,
          "internalType": "address",
          "name": "to",
          "type": "address"
        },
        {
          "indexed": true,
          "internalType": "uint256",
          "name": "tokenId",
          "type": "uint256"
        }
      ],
      "name": "Transfer",
      "type": "event"
    },
    {
      "inputs": [
        {
          "internalType": "uint256",
          "name": "tokenId",
          "type": "uint256"
        }
      ],
      "name": "addFundsToCapsule",
      "outputs": [],
      "stateMutability": "payable",
      "type": "function"
    },
    {
      "inputs": [
        {
          "internalType": "address",
          "name": "to",
          "type": "address"
        },
        {
          "internalType": "uint256",
          "name": "tokenId",
          "type": "uint256"
        }
      ],
      "name": "approve",
      "outputs": [],
      "stateMutability": "nonpayable",
      "type": "function"
    },
    {
      "inputs": [
        {
          "internalType": "address",
          "name": "owner",
          "type": "address"
        }
      ],
      "name": "balanceOf",
      "outputs": [
        {
          "internalType": "uint256",
          "name": "",
          "type": "uint256"
        }
      ],
      "stateMutability": "view",
      "type": "function"
    },
    {
      "inputs": [
        {
          "internalType": "uint256",
          "name": "",
          "type": "uint256"
        }
      ],
      "name": "capsules",
      "outputs": [
        {
          "internalType": "string",
          "name": "name",
          "type": "string"
        },
        {
          "internalType": "string",
          "name": "description",
          "type": "string"
        },
        {
          "internalType": "string",
          "name": "uri",
          "type": "string"
        },
        {
          "internalType": "uint256",
          "name": "unlockDate",
          "type": "uint256"
        },
        {
          "internalType": "address",
          "name": "heir",
          "type": "address"
        },
        {
          "internalType": "bool",
          "name": "claimed",
          "type": "bool"
        },
        {
          "internalType": "uint256",
          "name": "balance",
          "type": "uint256"
        }
      ],
      "stateMutability": "view",
      "type": "function"
    },
    {
      "inputs": [
        {
          "internalType": "uint256",
          "name": "tokenId",
          "type": "uint256"
        }
      ],
      "name": "claimCapsule",
      "outputs": [],
      "stateMutability": "nonpayable",
      "type": "function"
    },
    {
      "inputs": [],
      "name": "getAllCapsules",
      "outputs": [
        {
          "internalType": "uint256[]",
          "name": "",
          "type": "uint256[]"
        }
      ],
      "stateMutability": "view",
      "type": "function"
    },
    {
      "inputs": [
        {
          "internalType": "uint256",
          "name": "tokenId",
          "type": "uint256"
        }
      ],
      "name": "getApproved",
      "outputs": [
        {
          "internalType": "address",
          "name": "",
          "type": "address"
        }
      ],
      "stateMutability": "view",
      "type": "function"
    },
    {
      "inputs": [
        {
          "internalType": "uint256",
          "name": "tokenId",
          "type": "uint256"
        }
      ],
      "name": "getCapsule",
      "outputs": [
        {
          "internalType": "string",
          "name": "uri",
          "type": "string"
        },
        {
          "internalType": "uint256",
          "name": "unlockDate",
          "type": "uint256"
        },
        {
          "internalType": "address",
          "name": "heir",
          "type": "address"
        },
        {
          "internalType": "bool",
          "name": "claimed",
          "type": "bool"
        },
        {
          "internalType": "uint256",
          "name": "balance",
          "type": "uint256"
        }
      ],
      "stateMutability": "view",
      "type": "function"
    },
    {
      "inputs": [
        {
          "internalType": "uint256",
          "name": "tokenId",
          "type": "uint256"
        }
      ],
      "name": "getCapsuleBalance",
      "outputs": [
        {
          "internalType": "uint256",
          "name": "",
          "type": "uint256"
        }
      ],
      "stateMutability": "view",
      "type": "function"
    },
    {
      "inputs": [
        {
          "internalType": "address",
          "name": "owner",
          "type": "address"
        },
        {
          "internalType": "address",
          "name": "operator",
          "type": "address"
        }
      ],
      "name": "isApprovedForAll",
      "outputs": [
        {
          "internalType": "bool",
          "name": "",
          "type": "bool"
        }
      ],
      "stateMutability": "view",
      "type": "function"
    },
    {
      "inputs": [
        {
          "internalType": "address",
          "name": "heir",
          "type": "address"
        },
        {
          "internalType": "uint256",
          "name": "unlockDate",
          "type": "uint256"
        },
        {
          "internalType": "string",
          "name": "name",
          "type": "string"
        },
        {
          "internalType": "string",
          "name": "description",
          "type": "string"
        },
        {
          "internalType": "string",
          "name": "uri",
          "type": "string"
        }
      ],
      "name": "mintCapsule",
      "outputs": [],
      "stateMutability": "payable",
      "type": "function"
    },
    {
      "inputs": [],
      "name": "name",
      "outputs": [
        {
          "internalType": "string",
          "name": "",
          "type": "string"
        }
      ],
      "stateMutability": "view",
      "type": "function"
    },
    {
      "inputs": [],
      "name": "nextTokenId",
      "outputs": [
        {
          "internalType": "uint256",
          "name": "",
          "type": "uint256"
        }
      ],
      "stateMutability": "view",
      "type": "function"
    },
    {
      "inputs": [],
      "name": "owner",
      "outputs": [
        {
          "internalType": "address",
          "name": "",
          "type": "address"
        }
      ],
      "stateMutability": "view",
      "type": "function"
    },
    {
      "inputs": [
        {
          "internalType": "uint256",
          "name": "tokenId",
          "type": "uint256"
        }
      ],
      "name": "ownerOf",
      "outputs": [
        {
          "internalType": "address",
          "name": "",
          "type": "address"
        }
      ],
      "stateMutability": "view",
      "type": "function"
    },
    {
      "inputs": [],
      "name": "renounceOwnership",
      "outputs": [],
      "stateMutability": "nonpayable",
      "type": "function"
    },
    {
      "inputs": [
        {
          "internalType": "address",
          "name": "from",
          "type": "address"
        },
        {
          "internalType": "address",
          "name": "to",
          "type": "address"
        },
        {
          "internalType": "uint256",
          "name": "tokenId",
          "type": "uint256"
        }
      ],
      "name": "safeTransferFrom",
      "outputs": [],
      "stateMutability": "nonpayable",
      "type": "function"
    },
    {
      "inputs": [
        {
          "internalType": "address",
          "name": "from",
          "type": "address"
        },
        {
          "internalType": "address",
          "name": "to",
          "type": "address"
        },
        {
          "internalType": "uint256",
          "name": "tokenId",
          "type": "uint256"
        },
        {
          "internalType": "bytes",
          "name": "data",
          "type": "bytes"
        }
      ],
      "name": "safeTransferFrom",
      "outputs": [],
      "stateMutability": "nonpayable",
      "type": "function"
    },
    {
      "inputs": [
        {
          "internalType": "address",
          "name": "operator",
          "type": "address"
        },
        {
          "internalType": "bool",
          "name": "approved",
          "type": "bool"
        }
      ],
      "name": "setApprovalForAll",
      "outputs": [],
      "stateMutability": "nonpayable",
      "type": "function"
    },
    {
      "inputs": [
        {
          "internalType": "bytes4",
          "name": "interfaceId",
          "type": "bytes4"
        }
      ],
      "name": "supportsInterface",
      "outputs": [
        {
          "internalType": "bool",
          "name": "",
          "type": "bool"
        }
      ],
      "stateMutability": "view",
      "type": "function"
    },
    {
      "inputs": [],
      "name": "symbol",
      "outputs": [
        {
          "internalType": "string",
          "name": "",
          "type": "string"
        }
      ],
      "stateMutability": "view",
      "type": "function"
    },
    {
      "inputs": [
        {
          "internalType": "uint256",
          "name": "tokenId",
          "type": "uint256"
        }
      ],
      "name": "tokenURI",
      "outputs": [
        {
          "internalType": "string",
          "name": "",
          "type": "string"
        }
      ],
      "stateMutability": "view",
      "type": "function"
    },
    {
      "inputs": [
        {
          "internalType": "address",
          "name": "from",
          "type": "address"
        },
        {
          "internalType": "address",
          "name": "to",
          "type": "address"
        },
        {
          "internalType": "uint256",
          "name": "tokenId",
          "type": "uint256"
        }
      ],
      "name": "transferFrom",
      "outputs": [],
      "stateMutability": "nonpayable",
      "type": "function"
    },
    {
      "inputs": [
        {
          "internalType": "address",
          "name": "newOwner",
          "type": "address"
        }
      ],
      "name": "transferOwnership",
      "outputs": [],
      "stateMutability": "nonpayable",
      "type": "function"
    },
    {
      "inputs": [
        {
          "internalType": "uint256",
          "name": "tokenId",
          "type": "uint256"
        },
        {
          "internalType": "address",
          "name": "newHeir",
          "type": "address"
        }
      ],
      "name": "updateHeir",
      "outputs": [],
      "stateMutability": "nonpayable",
      "type": "function"
    },
    {
      "stateMutability": "payable",
      "type": "receive"
    }
  ],
  "bytecode": "0x608060405234801561001057600080fd5b506040518060400160405280600a81526020017f43617073756c654e4654000000000000000000000000000000000000000000008152506040518060400160405280600481526020017f434e465400000000000000000000000000000000000000000000000000000000815250816000908161008c91906103de565b50806001908161009c91906103de565b5050506100bb6100b06100c060201b60201c565b6100c860201b60201c565b6104b0565b600033905090565b6000600660009054906101000a900473ffffffffffffffffffffffffffffffffffffffff16905081600660006101000a81548173ffffffffffffffffffffffffffffffffffffffff021916908373ffffffffffffffffffffffffffffffffffffffff1602179055508173ffffffffffffffffffffffffffffffffffffffff168173ffffffffffffffffffffffffffffffffffffffff167f8be0079c531659141344cd1fd0a4f28419497f9722a3daafe3b4186f6b6457e060405160405180910390a35050565b600081519050919050565b7f4e487b7100000000000000000000000000000000000000000000000000000000600052604160045260246000fd5b7f4e487b7100000000000000000000000000000000000000000000000000000000600052602260045260246000fd5b6000600282049050600182168061020f57607f821691505b602082108103610222576102216101c8565b5b50919050565b60008190508160005260206000209050919050565b60006020601f8301049050919050565b600082821b905092915050565b60006008830261028a7fffffffffffffffffffffffffffffffffffffffffffffffffffffffffffffffff8261024d565b610294868361024d565b95508019841693508086168417925050509392505050565b6000819050919050565b6000819050919050565b60006102db6102d66102d1846102ac565b6102b6565b6102ac565b9050919050565b6000819050919050565b6102f5836102c0565b610309610301826102e2565b84845461025a565b825550505050565b600090565b61031e610311565b6103298184846102ec565b505050565b5b8181101561034d57610342600082610316565b60018101905061032f565b5050565b601f8211156103925761036381610228565b61036c8461023d565b8101602085101561037b578190505b61038f6103878561023d565b83018261032e565b50505b505050565b600082821c905092915050565b60006103b560001984600802610397565b1980831691505092915050565b60006103ce83836103a4565b9150826002028217905092915050565b6103e78261018e565b67ffffffffffffffff811115610400576103ff610199565b5b61040a82546101f7565b610415828285610351565b600060209050601f8311600181146104485760008415610436578287015190505b61044085826103c2565b8655506104a8565b601f19841661045686610228565b60005b8281101561047e57848901518255600182019150602085019450602081019050610459565b8683101561049b5784890151610497601f8916826103a4565b8355505b6001600288020188555050505b505050505050565b61427a806104bf6000396000f3fe60806040526004361061016a5760003560e01c80636da789c8116100d1578063a22cb4651161008a578063c87b56dd11610064578063c87b56dd1461058d578063db21d4e0146105ca578063e985e9c5146105e6578063f2fde38b14610623576101aa565b8063a22cb4651461051f578063b88d4fde14610548578063bfbb103714610571576101aa565b80636da789c81461040d57806370a082311461044a578063715018a61461048757806375794a3c1461049e5780638da5cb5b146104c957806395d89b41146104f4576101aa565b806323b872dd1161012357806323b872dd146102cf5780633aac3858146102f857806342842e0e14610339578063517bbf46146103625780636352211e146103a5578063672ea063146103e2576101aa565b806301ffc9a7146101af57806306fdde03146101ec578063081812fc14610217578063095ea7b3146102545780630dbf05e41461027d5780630f7460d3146102a6576101aa565b366101aa576040517f08c379a00000000000000000000000000000000000000000000000000000000081526004016101a1906128a3565b60405180910390fd5b600080fd5b3480156101bb57600080fd5b506101d660048036038101906101d1919061292f565b61064c565b6040516101e39190612977565b60405180910390f35b3480156101f857600080fd5b5061020161072e565b60405161020e9190612a11565b60405180910390f35b34801561022357600080fd5b5061023e60048036038101906102399190612a69565b6107c0565b60405161024b9190612ad7565b60405180910390f35b34801561026057600080fd5b5061027b60048036038101906102769190612b1e565b610806565b005b34801561028957600080fd5b506102a4600480360381019061029f9190612b5e565b61091d565b005b3480156102b257600080fd5b506102cd60048036038101906102c89190612a69565b610a44565b005b3480156102db57600080fd5b506102f660048036038101906102f19190612b9e565b610d1c565b005b34801561030457600080fd5b5061031f600480360381019061031a9190612a69565b610d7c565b604051610330959493929190612c00565b60405180910390f35b34801561034557600080fd5b50610360600480360381019061035b9190612b9e565b611056565b005b34801561036e57600080fd5b5061038960048036038101906103849190612a69565b611076565b60405161039c9796959493929190612c5a565b60405180910390f35b3480156103b157600080fd5b506103cc60048036038101906103c79190612a69565b61127d565b6040516103d99190612ad7565b60405180910390f35b3480156103ee57600080fd5b506103f7611303565b6040516104049190612d9c565b60405180910390f35b34801561041957600080fd5b50610434600480360381019061042f9190612a69565b61135b565b6040516104419190612dbe565b60405180910390f35b34801561045657600080fd5b50610471600480360381019061046c9190612dd9565b6113c3565b60405161047e9190612dbe565b60405180910390f35b34801561049357600080fd5b5061049c61147a565b005b3480156104aa57600080fd5b506104b361148e565b6040516104c09190612dbe565b60405180910390f35b3480156104d557600080fd5b506104de611494565b6040516104eb9190612ad7565b60405180910390f35b34801561050057600080fd5b506105096114be565b6040516105169190612a11565b60405180910390f35b34801561052b57600080fd5b5061054660048036038101906105419190612e32565b611550565b005b34801561055457600080fd5b5061056f600480360381019061056a9190612fa7565b611566565b005b61058b600480360381019061058691906130cb565b6115c8565b005b34801561059957600080fd5b506105b460048036038101906105af9190612a69565b6117ed565b6040516105c19190612a11565b60405180910390f35b6105e460048036038101906105df9190612a69565b6118dd565b005b3480156105f257600080fd5b5061060d6004803603810190610608919061319a565b611a2f565b60405161061a9190612977565b60405180910390f35b34801561062f57600080fd5b5061064a60048036038101906106459190612dd9565b611ac3565b005b60007f80ac58cd000000000000000000000000000000000000000000000000000000007bffffffffffffffffffffffffffffffffffffffffffffffffffffffff1916827bffffffffffffffffffffffffffffffffffffffffffffffffffffffff1916148061071757507f5b5e139f000000000000000000000000000000000000000000000000000000007bffffffffffffffffffffffffffffffffffffffffffffffffffffffff1916827bffffffffffffffffffffffffffffffffffffffffffffffffffffffff1916145b80610727575061072682611b46565b5b9050919050565b60606000805461073d90613209565b80601f016020809104026020016040519081016040528092919081815260200182805461076990613209565b80156107b65780601f1061078b576101008083540402835291602001916107b6565b820191906000526020600020905b81548152906001019060200180831161079957829003601f168201915b5050505050905090565b60006107cb82611bb0565b6004600083815260200190815260200160002060009054906101000a900473ffffffffffffffffffffffffffffffffffffffff169050919050565b60006108118261127d565b90508073ffffffffffffffffffffffffffffffffffffffff168373ffffffffffffffffffffffffffffffffffffffff1603610881576040517f08c379a0000000000000000000000000000000000000000000000000000000008152600401610878906132ac565b60405180910390fd5b8073ffffffffffffffffffffffffffffffffffffffff166108a0611bfb565b73ffffffffffffffffffffffffffffffffffffffff1614806108cf57506108ce816108c9611bfb565b611a2f565b5b61090e576040517f08c379a00000000000000000000000000000000000000000000000000000000081526004016109059061333e565b60405180910390fd5b6109188383611c03565b505050565b3373ffffffffffffffffffffffffffffffffffffffff1661093d8361127d565b73ffffffffffffffffffffffffffffffffffffffff1614610993576040517f08c379a000000000000000000000000000000000000000000000000000000000815260040161098a906133aa565b60405180910390fd5b600860008381526020019081526020016000206003015442106109eb576040517f08c379a00000000000000000000000000000000000000000000000000000000081526004016109e290613416565b60405180910390fd5b806008600084815260200190815260200160002060040160006101000a81548173ffffffffffffffffffffffffffffffffffffffff021916908373ffffffffffffffffffffffffffffffffffffffff1602179055505050565b6000600860008381526020019081526020016000209050610a6482611cbc565b610aa3576040517f08c379a0000000000000000000000000000000000000000000000000000000008152600401610a9a90613482565b60405180910390fd5b8060030154421015610aea576040517f08c379a0000000000000000000000000000000000000000000000000000000008152600401610ae1906134ee565b60405180910390fd5b8060040160009054906101000a900473ffffffffffffffffffffffffffffffffffffffff1673ffffffffffffffffffffffffffffffffffffffff163373ffffffffffffffffffffffffffffffffffffffff1614610b7c576040517f08c379a0000000000000000000000000000000000000000000000000000000008152600401610b739061355a565b60405180910390fd5b8060040160149054906101000a900460ff1615610bce576040517f08c379a0000000000000000000000000000000000000000000000000000000008152600401610bc5906135c6565b60405180910390fd5b60018160040160146101000a81548160ff021916908315150217905550610bfe610bf78361127d565b3384611cfd565b6000816005015490506000811115610cc8576000826005018190555060003373ffffffffffffffffffffffffffffffffffffffff1682604051610c4090613617565b60006040518083038185875af1925050503d8060008114610c7d576040519150601f19603f3d011682016040523d82523d6000602084013e610c82565b606091505b5050905080610cc6576040517f08c379a0000000000000000000000000000000000000000000000000000000008152600401610cbd90613678565b60405180910390fd5b505b3373ffffffffffffffffffffffffffffffffffffffff16837f062c8e3f61257cd5800ff8d66114a1d8783e87e8517af07d7d81e18a3b09d3a383604051610d0f9190612dbe565b60405180910390a3505050565b610d2d610d27611bfb565b82611ff6565b610d6c576040517f08c379a0000000000000000000000000000000000000000000000000000000008152600401610d639061370a565b60405180910390fd5b610d77838383611cfd565b505050565b6060600080600080610d8d86611cbc565b610dcc576040517f08c379a0000000000000000000000000000000000000000000000000000000008152600401610dc390613776565b60405180910390fd5b6000600860008881526020019081526020016000206040518060e0016040529081600082018054610dfc90613209565b80601f0160208091040260200160405190810160405280929190818152602001828054610e2890613209565b8015610e755780601f10610e4a57610100808354040283529160200191610e75565b820191906000526020600020905b815481529060010190602001808311610e5857829003601f168201915b50505050508152602001600182018054610e8e90613209565b80601f0160208091040260200160405190810160405280929190818152602001828054610eba90613209565b8015610f075780601f10610edc57610100808354040283529160200191610f07565b820191906000526020600020905b815481529060010190602001808311610eea57829003601f168201915b50505050508152602001600282018054610f2090613209565b80601f0160208091040260200160405190810160405280929190818152602001828054610f4c90613209565b8015610f995780601f10610f6e57610100808354040283529160200191610f99565b820191906000526020600020905b815481529060010190602001808311610f7c57829003601f168201915b50505050508152602001600382015481526020016004820160009054906101000a900473ffffffffffffffffffffffffffffffffffffffff1673ffffffffffffffffffffffffffffffffffffffff1673ffffffffffffffffffffffffffffffffffffffff1681526020016004820160149054906101000a900460ff1615151515815260200160058201548152505090508060400151816060015182608001518360a001518460c00151955095509550955095505091939590929450565b61107183838360405180602001604052806000815250611566565b505050565b600860205280600052604060002060009150905080600001805461109990613209565b80601f01602080910402602001604051908101604052809291908181526020018280546110c590613209565b80156111125780601f106110e757610100808354040283529160200191611112565b820191906000526020600020905b8154815290600101906020018083116110f557829003601f168201915b50505050509080600101805461112790613209565b80601f016020809104026020016040519081016040528092919081815260200182805461115390613209565b80156111a05780601f10611175576101008083540402835291602001916111a0565b820191906000526020600020905b81548152906001019060200180831161118357829003601f168201915b5050505050908060020180546111b590613209565b80601f01602080910402602001604051908101604052809291908181526020018280546111e190613209565b801561122e5780601f106112035761010080835404028352916020019161122e565b820191906000526020600020905b81548152906001019060200180831161121157829003601f168201915b5050505050908060030154908060040160009054906101000a900473ffffffffffffffffffffffffffffffffffffffff16908060040160149054906101000a900460ff16908060050154905087565b6000806112898361208b565b9050600073ffffffffffffffffffffffffffffffffffffffff168173ffffffffffffffffffffffffffffffffffffffff16036112fa576040517f08c379a00000000000000000000000000000000000000000000000000000000081526004016112f1906137e2565b60405180910390fd5b80915050919050565b6060600980548060200260200160405190810160405280929190818152602001828054801561135157602002820191906000526020600020905b81548152602001906001019080831161133d575b5050505050905090565b600061136682611cbc565b6113a5576040517f08c379a000000000000000000000000000000000000000000000000000000000815260040161139c90613776565b60405180910390fd5b60086000838152602001908152602001600020600501549050919050565b60008073ffffffffffffffffffffffffffffffffffffffff168273ffffffffffffffffffffffffffffffffffffffff1603611433576040517f08c379a000000000000000000000000000000000000000000000000000000000815260040161142a90613874565b60405180910390fd5b600360008373ffffffffffffffffffffffffffffffffffffffff1673ffffffffffffffffffffffffffffffffffffffff168152602001908152602001600020549050919050565b6114826120c8565b61148c6000612146565b565b60075481565b6000600660009054906101000a900473ffffffffffffffffffffffffffffffffffffffff16905090565b6060600180546114cd90613209565b80601f01602080910402602001604051908101604052809291908181526020018280546114f990613209565b80156115465780601f1061151b57610100808354040283529160200191611546565b820191906000526020600020905b81548152906001019060200180831161152957829003601f168201915b5050505050905090565b61156261155b611bfb565b838361220c565b5050565b611577611571611bfb565b83611ff6565b6115b6576040517f08c379a00000000000000000000000000000000000000000000000000000000081526004016115ad9061370a565b60405180910390fd5b6115c284848484612378565b50505050565b42841161160a576040517f08c379a0000000000000000000000000000000000000000000000000000000008152600401611601906138e0565b60405180910390fd5b60006007600081548092919061161f9061392f565b91905055905061162f33826123d4565b6040518060e001604052808581526020018481526020018381526020018681526020018773ffffffffffffffffffffffffffffffffffffffff168152602001600015158152602001348152506008600083815260200190815260200160002060008201518160000190816116a39190613b23565b5060208201518160010190816116b99190613b23565b5060408201518160020190816116cf9190613b23565b506060820151816003015560808201518160040160006101000a81548173ffffffffffffffffffffffffffffffffffffffff021916908373ffffffffffffffffffffffffffffffffffffffff16021790555060a08201518160040160146101000a81548160ff02191690831515021790555060c0820151816005015590505060098190806001815401808255809150506001900390600052602060002001600090919091909150558573ffffffffffffffffffffffffffffffffffffffff163373ffffffffffffffffffffffffffffffffffffffff16827f36205f3cb725b2dcdb44a04059f198cbd8b0035be79abfa7fb4737dcbf178bd688888888346040516117dd959493929190613bf5565b60405180910390a4505050505050565b60606117f882611cbc565b611837576040517f08c379a000000000000000000000000000000000000000000000000000000000815260040161182e90613ca9565b60405180910390fd5b60086000838152602001908152602001600020600201805461185890613209565b80601f016020809104026020016040519081016040528092919081815260200182805461188490613209565b80156118d15780601f106118a6576101008083540402835291602001916118d1565b820191906000526020600020905b8154815290600101906020018083116118b457829003601f168201915b50505050509050919050565b6118e681611cbc565b611925576040517f08c379a000000000000000000000000000000000000000000000000000000000815260040161191c90613482565b60405180910390fd5b3373ffffffffffffffffffffffffffffffffffffffff166119458261127d565b73ffffffffffffffffffffffffffffffffffffffff161461199b576040517f08c379a000000000000000000000000000000000000000000000000000000000815260040161199290613d15565b60405180910390fd5b6008600082815260200190815260200160002060040160149054906101000a900460ff16156119ff576040517f08c379a00000000000000000000000000000000000000000000000000000000081526004016119f6906135c6565b60405180910390fd5b34600860008381526020019081526020016000206005016000828254611a259190613d35565b9250508190555050565b6000600560008473ffffffffffffffffffffffffffffffffffffffff1673ffffffffffffffffffffffffffffffffffffffff16815260200190815260200160002060008373ffffffffffffffffffffffffffffffffffffffff1673ffffffffffffffffffffffffffffffffffffffff16815260200190815260200160002060009054906101000a900460ff16905092915050565b611acb6120c8565b600073ffffffffffffffffffffffffffffffffffffffff168173ffffffffffffffffffffffffffffffffffffffff1603611b3a576040517f08c379a0000000000000000000000000000000000000000000000000000000008152600401611b3190613ddb565b60405180910390fd5b611b4381612146565b50565b60007f01ffc9a7000000000000000000000000000000000000000000000000000000007bffffffffffffffffffffffffffffffffffffffffffffffffffffffff1916827bffffffffffffffffffffffffffffffffffffffffffffffffffffffff1916149050919050565b611bb981611cbc565b611bf8576040517f08c379a0000000000000000000000000000000000000000000000000000000008152600401611bef906137e2565b60405180910390fd5b50565b600033905090565b816004600083815260200190815260200160002060006101000a81548173ffffffffffffffffffffffffffffffffffffffff021916908373ffffffffffffffffffffffffffffffffffffffff160217905550808273ffffffffffffffffffffffffffffffffffffffff16611c768361127d565b73ffffffffffffffffffffffffffffffffffffffff167f8c5be1e5ebec7d5bd14f71427d1e84f3dd0314c0f7b2291e5b200ac8c7c3b92560405160405180910390a45050565b60008073ffffffffffffffffffffffffffffffffffffffff16611cde8361208b565b73ffffffffffffffffffffffffffffffffffffffff1614159050919050565b8273ffffffffffffffffffffffffffffffffffffffff16611d1d8261127d565b73ffffffffffffffffffffffffffffffffffffffff1614611d73576040517f08c379a0000000000000000000000000000000000000000000000000000000008152600401611d6a90613e6d565b60405180910390fd5b600073ffffffffffffffffffffffffffffffffffffffff168273ffffffffffffffffffffffffffffffffffffffff1603611de2576040517f08c379a0000000000000000000000000000000000000000000000000000000008152600401611dd990613eff565b60405180910390fd5b611def83838360016123f2565b8273ffffffffffffffffffffffffffffffffffffffff16611e0f8261127d565b73ffffffffffffffffffffffffffffffffffffffff1614611e65576040517f08c379a0000000000000000000000000000000000000000000000000000000008152600401611e5c90613e6d565b60405180910390fd5b6004600082815260200190815260200160002060006101000a81549073ffffffffffffffffffffffffffffffffffffffff02191690556001600360008573ffffffffffffffffffffffffffffffffffffffff1673ffffffffffffffffffffffffffffffffffffffff168152602001908152602001600020600082825403925050819055506001600360008473ffffffffffffffffffffffffffffffffffffffff1673ffffffffffffffffffffffffffffffffffffffff16815260200190815260200160002060008282540192505081905550816002600083815260200190815260200160002060006101000a81548173ffffffffffffffffffffffffffffffffffffffff021916908373ffffffffffffffffffffffffffffffffffffffff160217905550808273ffffffffffffffffffffffffffffffffffffffff168473ffffffffffffffffffffffffffffffffffffffff167fddf252ad1be2c89b69c2b068fc378daa952ba7f163c4a11628f55a4df523b3ef60405160405180910390a4611ff183838360016123f8565b505050565b6000806120028361127d565b90508073ffffffffffffffffffffffffffffffffffffffff168473ffffffffffffffffffffffffffffffffffffffff16148061204457506120438185611a2f565b5b8061208257508373ffffffffffffffffffffffffffffffffffffffff1661206a846107c0565b73ffffffffffffffffffffffffffffffffffffffff16145b91505092915050565b60006002600083815260200190815260200160002060009054906101000a900473ffffffffffffffffffffffffffffffffffffffff169050919050565b6120d0611bfb565b73ffffffffffffffffffffffffffffffffffffffff166120ee611494565b73ffffffffffffffffffffffffffffffffffffffff1614612144576040517f08c379a000000000000000000000000000000000000000000000000000000000815260040161213b90613f6b565b60405180910390fd5b565b6000600660009054906101000a900473ffffffffffffffffffffffffffffffffffffffff16905081600660006101000a81548173ffffffffffffffffffffffffffffffffffffffff021916908373ffffffffffffffffffffffffffffffffffffffff1602179055508173ffffffffffffffffffffffffffffffffffffffff168173ffffffffffffffffffffffffffffffffffffffff167f8be0079c531659141344cd1fd0a4f28419497f9722a3daafe3b4186f6b6457e060405160405180910390a35050565b8173ffffffffffffffffffffffffffffffffffffffff168373ffffffffffffffffffffffffffffffffffffffff160361227a576040517f08c379a000000000000000000000000000000000000000000000000000000000815260040161227190613fd7565b60405180910390fd5b80600560008573ffffffffffffffffffffffffffffffffffffffff1673ffffffffffffffffffffffffffffffffffffffff16815260200190815260200160002060008473ffffffffffffffffffffffffffffffffffffffff1673ffffffffffffffffffffffffffffffffffffffff16815260200190815260200160002060006101000a81548160ff0219169083151502179055508173ffffffffffffffffffffffffffffffffffffffff168373ffffffffffffffffffffffffffffffffffffffff167f17307eab39ab6107e8899845ad3d59bd9653f200f220920489ca2b5937696c318360405161236b9190612977565b60405180910390a3505050565b612383848484611cfd565b61238f848484846123fe565b6123ce576040517f08c379a00000000000000000000000000000000000000000000000000000000081526004016123c590614069565b60405180910390fd5b50505050565b6123ee828260405180602001604052806000815250612585565b5050565b50505050565b50505050565b600061241f8473ffffffffffffffffffffffffffffffffffffffff166125e0565b15612578578373ffffffffffffffffffffffffffffffffffffffff1663150b7a02612448611bfb565b8786866040518563ffffffff1660e01b815260040161246a94939291906140de565b6020604051808303816000875af19250505080156124a657506040513d601f19601f820116820180604052508101906124a3919061413f565b60015b612528573d80600081146124d6576040519150601f19603f3d011682016040523d82523d6000602084013e6124db565b606091505b506000815103612520576040517f08c379a000000000000000000000000000000000000000000000000000000000815260040161251790614069565b60405180910390fd5b805181602001fd5b63150b7a0260e01b7bffffffffffffffffffffffffffffffffffffffffffffffffffffffff1916817bffffffffffffffffffffffffffffffffffffffffffffffffffffffff19161491505061257d565b600190505b949350505050565b61258f8383612603565b61259c60008484846123fe565b6125db576040517f08c379a00000000000000000000000000000000000000000000000000000000081526004016125d290614069565b60405180910390fd5b505050565b6000808273ffffffffffffffffffffffffffffffffffffffff163b119050919050565b600073ffffffffffffffffffffffffffffffffffffffff168273ffffffffffffffffffffffffffffffffffffffff1603612672576040517f08c379a0000000000000000000000000000000000000000000000000000000008152600401612669906141b8565b60405180910390fd5b61267b81611cbc565b156126bb576040517f08c379a00000000000000000000000000000000000000000000000000000000081526004016126b290614224565b60405180910390fd5b6126c96000838360016123f2565b6126d281611cbc565b15612712576040517f08c379a000000000000000000000000000000000000000000000000000000000815260040161270990614224565b60405180910390fd5b6001600360008473ffffffffffffffffffffffffffffffffffffffff1673ffffffffffffffffffffffffffffffffffffffff16815260200190815260200160002060008282540192505081905550816002600083815260200190815260200160002060006101000a81548173ffffffffffffffffffffffffffffffffffffffff021916908373ffffffffffffffffffffffffffffffffffffffff160217905550808273ffffffffffffffffffffffffffffffffffffffff16600073ffffffffffffffffffffffffffffffffffffffff167fddf252ad1be2c89b69c2b068fc378daa952ba7f163c4a11628f55a4df523b3ef60405160405180910390a461281c6000838360016123f8565b5050565b600082825260208201905092915050565b7f5573652061646446756e6473546f43617073756c6520746f2066756e6420612060008201527f63617073756c6500000000000000000000000000000000000000000000000000602082015250565b600061288d602783612820565b915061289882612831565b604082019050919050565b600060208201905081810360008301526128bc81612880565b9050919050565b6000604051905090565b600080fd5b600080fd5b60007fffffffff0000000000000000000000000000000000000000000000000000000082169050919050565b61290c816128d7565b811461291757600080fd5b50565b60008135905061292981612903565b92915050565b600060208284031215612945576129446128cd565b5b60006129538482850161291a565b91505092915050565b60008115159050919050565b6129718161295c565b82525050565b600060208201905061298c6000830184612968565b92915050565b600081519050919050565b60005b838110156129bb5780820151818401526020810190506129a0565b60008484015250505050565b6000601f19601f8301169050919050565b60006129e382612992565b6129ed8185612820565b93506129fd81856020860161299d565b612a06816129c7565b840191505092915050565b60006020820190508181036000830152612a2b81846129d8565b905092915050565b6000819050919050565b612a4681612a33565b8114612a5157600080fd5b50565b600081359050612a6381612a3d565b92915050565b600060208284031215612a7f57612a7e6128cd565b5b6000612a8d84828501612a54565b91505092915050565b600073ffffffffffffffffffffffffffffffffffffffff82169050919050565b6000612ac182612a96565b9050919050565b612ad181612ab6565b82525050565b6000602082019050612aec6000830184612ac8565b92915050565b612afb81612ab6565b8114612b0657600080fd5b50565b600081359050612b1881612af2565b92915050565b60008060408385031215612b3557612b346128cd565b5b6000612b4385828601612b09565b9250506020612b5485828601612a54565b9150509250929050565b60008060408385031215612b7557612b746128cd565b5b6000612b8385828601612a54565b9250506020612b9485828601612b09565b9150509250929050565b600080600060608486031215612bb757612bb66128cd565b5b6000612bc586828701612b09565b9350506020612bd686828701612b09565b9250506040612be786828701612a54565b9150509250925092565b612bfa81612a33565b82525050565b600060a0820190508181036000830152612c1a81886129d8565b9050612c296020830187612bf1565b612c366040830186612ac8565b612c436060830185612968565b612c506080830184612bf1565b9695505050505050565b600060e0820190508181036000830152612c74818a6129d8565b90508181036020830152612c8881896129d8565b90508181036040830152612c9c81886129d8565b9050612cab6060830187612bf1565b612cb86080830186612ac8565b612cc560a0830185612968565b612cd260c0830184612bf1565b98975050505050505050565b600081519050919050565b600082825260208201905092915050565b6000819050602082019050919050565b612d1381612a33565b82525050565b6000612d258383612d0a565b60208301905092915050565b6000602082019050919050565b6000612d4982612cde565b612d538185612ce9565b9350612d5e83612cfa565b8060005b83811015612d8f578151612d768882612d19565b9750612d8183612d31565b925050600181019050612d62565b5085935050505092915050565b60006020820190508181036000830152612db68184612d3e565b905092915050565b6000602082019050612dd36000830184612bf1565b92915050565b600060208284031215612def57612dee6128cd565b5b6000612dfd84828501612b09565b91505092915050565b612e0f8161295c565b8114612e1a57600080fd5b50565b600081359050612e2c81612e06565b92915050565b60008060408385031215612e4957612e486128cd565b5b6000612e5785828601612b09565b9250506020612e6885828601612e1d565b9150509250929050565b600080fd5b600080fd5b7f4e487b7100000000000000000000000000000000000000000000000000000000600052604160045260246000fd5b612eb4826129c7565b810181811067ffffffffffffffff82111715612ed357612ed2612e7c565b5b80604052505050565b6000612ee66128c3565b9050612ef28282612eab565b919050565b600067ffffffffffffffff821115612f1257612f11612e7c565b5b612f1b826129c7565b9050602081019050919050565b82818337600083830152505050565b6000612f4a612f4584612ef7565b612edc565b905082815260208101848484011115612f6657612f65612e77565b5b612f71848285612f28565b509392505050565b600082601f830112612f8e57612f8d612e72565b5b8135612f9e848260208601612f37565b91505092915050565b60008060008060808587031215612fc157612fc06128cd565b5b6000612fcf87828801612b09565b9450506020612fe087828801612b09565b9350506040612ff187828801612a54565b925050606085013567ffffffffffffffff811115613012576130116128d2565b5b61301e87828801612f79565b91505092959194509250565b600067ffffffffffffffff82111561304557613044612e7c565b5b61304e826129c7565b9050602081019050919050565b600061306e6130698461302a565b612edc565b90508281526020810184848401111561308a57613089612e77565b5b613095848285612f28565b509392505050565b600082601f8301126130b2576130b1612e72565b5b81356130c284826020860161305b565b91505092915050565b600080600080600060a086880312156130e7576130e66128cd565b5b60006130f588828901612b09565b955050602061310688828901612a54565b945050604086013567ffffffffffffffff811115613127576131266128d2565b5b6131338882890161309d565b935050606086013567ffffffffffffffff811115613154576131536128d2565b5b6131608882890161309d565b925050608086013567ffffffffffffffff811115613181576131806128d2565b5b61318d8882890161309d565b9150509295509295909350565b600080604083850312156131b1576131b06128cd565b5b60006131bf85828601612b09565b92505060206131d085828601612b09565b9150509250929050565b7f4e487b7100000000000000000000000000000000000000000000000000000000600052602260045260246000fd5b6000600282049050600182168061322157607f821691505b602082108103613234576132336131da565b5b50919050565b7f4552433732313a20617070726f76616c20746f2063757272656e74206f776e6560008201527f7200000000000000000000000000000000000000000000000000000000000000602082015250565b6000613296602183612820565b91506132a18261323a565b604082019050919050565b600060208201905081810360008301526132c581613289565b9050919050565b7f4552433732313a20617070726f76652063616c6c6572206973206e6f7420746f60008201527f6b656e206f776e6572206f7220617070726f76656420666f7220616c6c000000602082015250565b6000613328603d83612820565b9150613333826132cc565b604082019050919050565b600060208201905081810360008301526133578161331b565b9050919050565b7f4e6f7420746f6b656e206f776e65720000000000000000000000000000000000600082015250565b6000613394600f83612820565b915061339f8261335e565b602082019050919050565b600060208201905081810360008301526133c381613387565b9050919050565b7f43617073756c6520616c726561647920756e6c6f636b65640000000000000000600082015250565b6000613400601883612820565b915061340b826133ca565b602082019050919050565b6000602082019050818103600083015261342f816133f3565b9050919050565b7f496e76616c696420746f6b656e00000000000000000000000000000000000000600082015250565b600061346c600d83612820565b915061347782613436565b602082019050919050565b6000602082019050818103600083015261349b8161345f565b9050919050565b7f43617073756c65206973207374696c6c206c6f636b6564000000000000000000600082015250565b60006134d8601783612820565b91506134e3826134a2565b602082019050919050565b60006020820190508181036000830152613507816134cb565b9050919050565b7f596f7520617265206e6f74207468652064657369676e61746564206865697200600082015250565b6000613544601f83612820565b915061354f8261350e565b602082019050919050565b6000602082019050818103600083015261357381613537565b9050919050565b7f43617073756c6520616c726561647920636c61696d6564000000000000000000600082015250565b60006135b0601783612820565b91506135bb8261357a565b602082019050919050565b600060208201905081810360008301526135df816135a3565b9050919050565b600081905092915050565b50565b60006136016000836135e6565b915061360c826135f1565b600082019050919050565b6000613622826135f4565b9150819050919050565b7f5472616e73666572206661696c65640000000000000000000000000000000000600082015250565b6000613662600f83612820565b915061366d8261362c565b602082019050919050565b6000602082019050818103600083015261369181613655565b9050919050565b7f4552433732313a2063616c6c6572206973206e6f7420746f6b656e206f776e6560008201527f72206f7220617070726f76656400000000000000000000000000000000000000602082015250565b60006136f4602d83612820565b91506136ff82613698565b604082019050919050565b60006020820190508181036000830152613723816136e7565b9050919050565b7f43617073756c6520646f6573206e6f7420657869737400000000000000000000600082015250565b6000613760601683612820565b915061376b8261372a565b602082019050919050565b6000602082019050818103600083015261378f81613753565b9050919050565b7f4552433732313a20696e76616c696420746f6b656e2049440000000000000000600082015250565b60006137cc601883612820565b91506137d782613796565b602082019050919050565b600060208201905081810360008301526137fb816137bf565b9050919050565b7f4552433732313a2061646472657373207a65726f206973206e6f74206120766160008201527f6c6964206f776e65720000000000000000000000000000000000000000000000602082015250565b600061385e602983612820565b915061386982613802565b604082019050919050565b6000602082019050818103600083015261388d81613851565b9050919050565b7f556e6c6f636b2064617465206d75737420626520696e20667574757265000000600082015250565b60006138ca601d83612820565b91506138d582613894565b602082019050919050565b600060208201905081810360008301526138f9816138bd565b9050919050565b7f4e487b7100000000000000000000000000000000000000000000000000000000600052601160045260246000fd5b600061393a82612a33565b91507fffffffffffffffffffffffffffffffffffffffffffffffffffffffffffffffff820361396c5761396b613900565b5b600182019050919050565b60008190508160005260206000209050919050565b60006020601f8301049050919050565b600082821b905092915050565b6000600883026139d97fffffffffffffffffffffffffffffffffffffffffffffffffffffffffffffffff8261399c565b6139e3868361399c565b95508019841693508086168417925050509392505050565b6000819050919050565b6000613a20613a1b613a1684612a33565b6139fb565b612a33565b9050919050565b6000819050919050565b613a3a83613a05565b613a4e613a4682613a27565b8484546139a9565b825550505050565b600090565b613a63613a56565b613a6e818484613a31565b505050565b5b81811015613a9257613a87600082613a5b565b600181019050613a74565b5050565b601f821115613ad757613aa881613977565b613ab18461398c565b81016020851015613ac0578190505b613ad4613acc8561398c565b830182613a73565b50505b505050565b600082821c905092915050565b6000613afa60001984600802613adc565b1980831691505092915050565b6000613b138383613ae9565b9150826002028217905092915050565b613b2c82612992565b67ffffffffffffffff811115613b4557613b44612e7c565b5b613b4f8254613209565b613b5a828285613a96565b600060209050601f831160018114613b8d5760008415613b7b578287015190505b613b858582613b07565b865550613bed565b601f198416613b9b86613977565b60005b82811015613bc357848901518255600182019150602085019450602081019050613b9e565b86831015613be05784890151613bdc601f891682613ae9565b8355505b6001600288020188555050505b505050505050565b600060a082019050613c0a6000830188612bf1565b8181036020830152613c1c81876129d8565b90508181036040830152613c3081866129d8565b90508181036060830152613c4481856129d8565b9050613c536080830184612bf1565b9695505050505050565b7f546f6b656e20646f6573206e6f74206578697374000000000000000000000000600082015250565b6000613c93601483612820565b9150613c9e82613c5d565b602082019050919050565b60006020820190508181036000830152613cc281613c86565b9050919050565b7f4f6e6c792063617073756c65206f776e65722063616e2066756e642069740000600082015250565b6000613cff601e83612820565b9150613d0a82613cc9565b602082019050919050565b60006020820190508181036000830152613d2e81613cf2565b9050919050565b6000613d4082612a33565b9150613d4b83612a33565b9250828201905080821115613d6357613d62613900565b5b92915050565b7f4f776e61626c653a206e6577206f776e657220697320746865207a65726f206160008201527f6464726573730000000000000000000000000000000000000000000000000000602082015250565b6000613dc5602683612820565b9150613dd082613d69565b604082019050919050565b60006020820190508181036000830152613df481613db8565b9050919050565b7f4552433732313a207472616e736665722066726f6d20696e636f72726563742060008201527f6f776e6572000000000000000000000000000000000000000000000000000000602082015250565b6000613e57602583612820565b9150613e6282613dfb565b604082019050919050565b60006020820190508181036000830152613e8681613e4a565b9050919050565b7f4552433732313a207472616e7366657220746f20746865207a65726f2061646460008201527f7265737300000000000000000000000000000000000000000000000000000000602082015250565b6000613ee9602483612820565b9150613ef482613e8d565b604082019050919050565b60006020820190508181036000830152613f1881613edc565b9050919050565b7f4f776e61626c653a2063616c6c6572206973206e6f7420746865206f776e6572600082015250565b6000613f55602083612820565b9150613f6082613f1f565b602082019050919050565b60006020820190508181036000830152613f8481613f48565b9050919050565b7f4552433732313a20617070726f766520746f2063616c6c657200000000000000600082015250565b6000613fc1601983612820565b9150613fcc82613f8b565b602082019050919050565b60006020820190508181036000830152613ff081613fb4565b9050919050565b7f4552433732313a207472616e7366657220746f206e6f6e20455243373231526560008201527f63656976657220696d706c656d656e7465720000000000000000000000000000602082015250565b6000614053603283612820565b915061405e82613ff7565b604082019050919050565b6000602082019050818103600083015261408281614046565b9050919050565b600081519050919050565b600082825260208201905092915050565b60006140b082614089565b6140ba8185614094565b93506140ca81856020860161299d565b6140d3816129c7565b840191505092915050565b60006080820190506140f36000830187612ac8565b6141006020830186612ac8565b61410d6040830185612bf1565b818103606083015261411f81846140a5565b905095945050505050565b60008151905061413981612903565b92915050565b600060208284031215614155576141546128cd565b5b60006141638482850161412a565b91505092915050565b7f4552433732313a206d696e7420746f20746865207a65726f2061646472657373600082015250565b60006141a2602083612820565b91506141ad8261416c565b602082019050919050565b600060208201905081810360008301526141d181614195565b9050919050565b7f4552433732313a20746f6b656e20616c7265616479206d696e74656400000000600082015250565b600061420e601c83612820565b9150614219826141d8565b602082019050919050565b6000602082019050818103600083015261423d81614201565b905091905056fea264697066735822122017179ee32e7476fe4c1fcfd2e692575539f49b235c23bca7811ff21eea8828b964736f6c634300081c0033",
  "linkReferences": {},
  "deployedLinkReferences": {}
}