{
  "_format": "hh-sol-artifact-1",
  "contractName": "CapsuleNFT",
  "sourceName": "contracts/CapsuleNFT.sol",
  "abi": [
    {
      "inputs": [],
      "stateMutability": "nonpayable",
      "type": "constructor"
    },
    {
      "anonymous": false,
      "inputs": [
        {
          "indexed": true,
          "internalType": "address",
          "name": "owner",
          "type": "address"
        },
        {
          "indexed": true,
          "internalType": "address",
          "name": "approved",
          "type": "address"
        },
        {
          "indexed": true,
          "internalType": "uint256",
          "name": "tokenId",
          "type": "uint256"
        }
      ],
      "name": "Approval",
      "type": "event"
    },
    {
      "anonymous": false,
      "inputs": [
        {
          "indexed": true,
          "internalType": "address",
          "name": "owner",
          "type": "address"
        },
        {
          "indexed": true,
          "internalType": "address",
          "name": "operator",
          "type": "address"
        },
        {
          "indexed": false,
          "internalType": "bool",
          "name": "approved",
          "type": "bool"
        }
      ],
      "name": "ApprovalForAll",
      "type": "event"
    },
    {
      "anonymous": false,
      "inputs": [
        {
          "indexed": true,
          "internalType": "uint256",
          "name": "tokenId",
          "type": "uint256"
        },
        {
          "indexed": true,
          "internalType": "address",
          "name": "heir",
          "type": "address"
        },
        {
          "indexed": false,
          "internalType": "uint256",
          "name": "value",
          "type": "uint256"
        }
      ],
      "name": "CapsuleClaimed",
      "type": "event"
    },
    {
      "anonymous": false,
      "inputs": [
        {
          "indexed": true,
          "internalType": "uint256",
          "name": "tokenId",
          "type": "uint256"
        },
        {
          "indexed": true,
          "internalType": "address",
          "name": "creator",
          "type": "address"
        },
        {
          "indexed": true,
          "internalType": "address",
          "name": "heir",
          "type": "address"
        },
        {
          "indexed": false,
          "internalType": "uint256",
          "name": "unlockDate",
          "type": "uint256"
        },
        {
          "indexed": false,
          "internalType": "string",
          "name": "name",
          "type": "string"
        },
        {
          "indexed": false,
          "internalType": "string",
          "name": "description",
          "type": "string"
        },
        {
          "indexed": false,
          "internalType": "string",
          "name": "uri",
          "type": "string"
        },
        {
          "indexed": false,
          "internalType": "uint256",
          "name": "value",
          "type": "uint256"
        }
      ],
      "name": "CapsuleMinted",
      "type": "event"
    },
    {
      "anonymous": false,
      "inputs": [
        {
          "indexed": true,
          "internalType": "address",
          "name": "previousOwner",
          "type": "address"
        },
        {
          "indexed": true,
          "internalType": "address",
          "name": "newOwner",
          "type": "address"
        }
      ],
      "name": "OwnershipTransferred",
      "type": "event"
    },
    {
      "anonymous": false,
      "inputs": [
        {
          "indexed": true,
          "internalType": "address",
          "name": "from",
          "type": "address"
        },
        {
          "indexed": true,
          "internalType": "address",
          "name": "to",
          "type": "address"
        },
        {
          "indexed": true,
          "internalType": "uint256",
          "name": "tokenId",
          "type": "uint256"
        }
      ],
      "name": "Transfer",
      "type": "event"
    },
    {
      "inputs": [
        {
          "internalType": "uint256",
          "name": "tokenId",
          "type": "uint256"
        }
      ],
      "name": "addFundsToCapsule",
      "outputs": [],
      "stateMutability": "payable",
      "type": "function"
    },
    {
      "inputs": [
        {
          "internalType": "address",
          "name": "to",
          "type": "address"
        },
        {
          "internalType": "uint256",
          "name": "tokenId",
          "type": "uint256"
        }
      ],
      "name": "approve",
      "outputs": [],
      "stateMutability": "nonpayable",
      "type": "function"
    },
    {
      "inputs": [
        {
          "internalType": "address",
          "name": "owner",
          "type": "address"
        }
      ],
      "name": "balanceOf",
      "outputs": [
        {
          "internalType": "uint256",
          "name": "",
          "type": "uint256"
        }
      ],
      "stateMutability": "view",
      "type": "function"
    },
    {
      "inputs": [
        {
          "internalType": "uint256",
          "name": "",
          "type": "uint256"
        }
      ],
      "name": "capsules",
      "outputs": [
        {
          "internalType": "string",
          "name": "name",
          "type": "string"
        },
        {
          "internalType": "string",
          "name": "description",
          "type": "string"
        },
        {
          "internalType": "string",
          "name": "uri",
          "type": "string"
        },
        {
          "internalType": "uint256",
          "name": "unlockDate",
          "type": "uint256"
        },
        {
          "internalType": "address",
          "name": "heir",
          "type": "address"
        },
        {
          "internalType": "bool",
          "name": "claimed",
          "type": "bool"
        },
        {
          "internalType": "uint256",
          "name": "balance",
          "type": "uint256"
        },
        {
          "internalType": "uint256",
          "name": "createdAt",
          "type": "uint256"
        },
        {
          "internalType": "uint256",
          "name": "updatedAt",
          "type": "uint256"
        },
        {
          "internalType": "uint256",
          "name": "deletedAt",
          "type": "uint256"
        }
      ],
      "stateMutability": "view",
      "type": "function"
    },
    {
      "inputs": [
        {
          "internalType": "uint256",
          "name": "tokenId",
          "type": "uint256"
        }
      ],
      "name": "claimCapsule",
      "outputs": [],
      "stateMutability": "nonpayable",
      "type": "function"
    },
    {
      "inputs": [
        {
          "internalType": "uint256",
          "name": "tokenId",
          "type": "uint256"
        }
      ],
      "name": "deleteCapsule",
      "outputs": [],
      "stateMutability": "nonpayable",
      "type": "function"
    },
    {
      "inputs": [],
      "name": "getAllCapsules",
      "outputs": [
        {
          "internalType": "uint256[]",
          "name": "",
          "type": "uint256[]"
        }
      ],
      "stateMutability": "view",
      "type": "function"
    },
    {
      "inputs": [
        {
          "internalType": "uint256",
          "name": "tokenId",
          "type": "uint256"
        }
      ],
      "name": "getApproved",
      "outputs": [
        {
          "internalType": "address",
          "name": "",
          "type": "address"
        }
      ],
      "stateMutability": "view",
      "type": "function"
    },
    {
      "inputs": [
        {
          "internalType": "uint256",
          "name": "tokenId",
          "type": "uint256"
        }
      ],
      "name": "getCapsule",
      "outputs": [
        {
          "internalType": "string",
          "name": "name",
          "type": "string"
        },
        {
          "internalType": "string",
          "name": "description",
          "type": "string"
        },
        {
          "internalType": "string",
          "name": "uri",
          "type": "string"
        },
        {
          "internalType": "uint256",
          "name": "unlockDate",
          "type": "uint256"
        },
        {
          "internalType": "address",
          "name": "heir",
          "type": "address"
        },
        {
          "internalType": "bool",
          "name": "claimed",
          "type": "bool"
        },
        {
          "internalType": "uint256",
          "name": "balance",
          "type": "uint256"
        },
        {
          "internalType": "uint256",
          "name": "createdAt",
          "type": "uint256"
        },
        {
          "internalType": "uint256",
          "name": "updatedAt",
          "type": "uint256"
        },
        {
          "internalType": "uint256",
          "name": "deletedAt",
          "type": "uint256"
        }
      ],
      "stateMutability": "view",
      "type": "function"
    },
    {
      "inputs": [
        {
          "internalType": "uint256",
          "name": "tokenId",
          "type": "uint256"
        }
      ],
      "name": "getCapsuleBalance",
      "outputs": [
        {
          "internalType": "uint256",
          "name": "",
          "type": "uint256"
        }
      ],
      "stateMutability": "view",
      "type": "function"
    },
    {
      "inputs": [
        {
          "internalType": "address",
          "name": "owner",
          "type": "address"
        },
        {
          "internalType": "address",
          "name": "operator",
          "type": "address"
        }
      ],
      "name": "isApprovedForAll",
      "outputs": [
        {
          "internalType": "bool",
          "name": "",
          "type": "bool"
        }
      ],
      "stateMutability": "view",
      "type": "function"
    },
    {
      "inputs": [
        {
          "internalType": "address",
          "name": "heir",
          "type": "address"
        },
        {
          "internalType": "uint256",
          "name": "unlockDate",
          "type": "uint256"
        },
        {
          "internalType": "string",
          "name": "name",
          "type": "string"
        },
        {
          "internalType": "string",
          "name": "description",
          "type": "string"
        },
        {
          "internalType": "string",
          "name": "uri",
          "type": "string"
        }
      ],
      "name": "mintCapsule",
      "outputs": [],
      "stateMutability": "payable",
      "type": "function"
    },
    {
      "inputs": [],
      "name": "name",
      "outputs": [
        {
          "internalType": "string",
          "name": "",
          "type": "string"
        }
      ],
      "stateMutability": "view",
      "type": "function"
    },
    {
      "inputs": [],
      "name": "nextTokenId",
      "outputs": [
        {
          "internalType": "uint256",
          "name": "",
          "type": "uint256"
        }
      ],
      "stateMutability": "view",
      "type": "function"
    },
    {
      "inputs": [],
      "name": "owner",
      "outputs": [
        {
          "internalType": "address",
          "name": "",
          "type": "address"
        }
      ],
      "stateMutability": "view",
      "type": "function"
    },
    {
      "inputs": [
        {
          "internalType": "uint256",
          "name": "tokenId",
          "type": "uint256"
        }
      ],
      "name": "ownerOf",
      "outputs": [
        {
          "internalType": "address",
          "name": "",
          "type": "address"
        }
      ],
      "stateMutability": "view",
      "type": "function"
    },
    {
      "inputs": [],
      "name": "renounceOwnership",
      "outputs": [],
      "stateMutability": "nonpayable",
      "type": "function"
    },
    {
      "inputs": [
        {
          "internalType": "address",
          "name": "from",
          "type": "address"
        },
        {
          "internalType": "address",
          "name": "to",
          "type": "address"
        },
        {
          "internalType": "uint256",
          "name": "tokenId",
          "type": "uint256"
        }
      ],
      "name": "safeTransferFrom",
      "outputs": [],
      "stateMutability": "nonpayable",
      "type": "function"
    },
    {
      "inputs": [
        {
          "internalType": "address",
          "name": "from",
          "type": "address"
        },
        {
          "internalType": "address",
          "name": "to",
          "type": "address"
        },
        {
          "internalType": "uint256",
          "name": "tokenId",
          "type": "uint256"
        },
        {
          "internalType": "bytes",
          "name": "data",
          "type": "bytes"
        }
      ],
      "name": "safeTransferFrom",
      "outputs": [],
      "stateMutability": "nonpayable",
      "type": "function"
    },
    {
      "inputs": [
        {
          "internalType": "address",
          "name": "operator",
          "type": "address"
        },
        {
          "internalType": "bool",
          "name": "approved",
          "type": "bool"
        }
      ],
      "name": "setApprovalForAll",
      "outputs": [],
      "stateMutability": "nonpayable",
      "type": "function"
    },
    {
      "inputs": [
        {
          "internalType": "bytes4",
          "name": "interfaceId",
          "type": "bytes4"
        }
      ],
      "name": "supportsInterface",
      "outputs": [
        {
          "internalType": "bool",
          "name": "",
          "type": "bool"
        }
      ],
      "stateMutability": "view",
      "type": "function"
    },
    {
      "inputs": [],
      "name": "symbol",
      "outputs": [
        {
          "internalType": "string",
          "name": "",
          "type": "string"
        }
      ],
      "stateMutability": "view",
      "type": "function"
    },
    {
      "inputs": [
        {
          "internalType": "uint256",
          "name": "tokenId",
          "type": "uint256"
        }
      ],
      "name": "tokenURI",
      "outputs": [
        {
          "internalType": "string",
          "name": "",
          "type": "string"
        }
      ],
      "stateMutability": "view",
      "type": "function"
    },
    {
      "inputs": [
        {
          "internalType": "address",
          "name": "from",
          "type": "address"
        },
        {
          "internalType": "address",
          "name": "to",
          "type": "address"
        },
        {
          "internalType": "uint256",
          "name": "tokenId",
          "type": "uint256"
        }
      ],
      "name": "transferFrom",
      "outputs": [],
      "stateMutability": "nonpayable",
      "type": "function"
    },
    {
      "inputs": [
        {
          "internalType": "address",
          "name": "newOwner",
          "type": "address"
        }
      ],
      "name": "transferOwnership",
      "outputs": [],
      "stateMutability": "nonpayable",
      "type": "function"
    },
    {
      "inputs": [
        {
          "internalType": "uint256",
          "name": "tokenId",
          "type": "uint256"
        },
        {
          "internalType": "address",
          "name": "newHeir",
          "type": "address"
        }
      ],
      "name": "updateHeir",
      "outputs": [],
      "stateMutability": "nonpayable",
      "type": "function"
    },
    {
      "stateMutability": "payable",
      "type": "receive"
    }
  ],
  "bytecode": "0x608060405234801561001057600080fd5b506040518060400160405280600a81526020017f43617073756c654e4654000000000000000000000000000000000000000000008152506040518060400160405280600481526020017f434e465400000000000000000000000000000000000000000000000000000000815250816000908161008c91906103de565b50806001908161009c91906103de565b5050506100bb6100b06100c060201b60201c565b6100c860201b60201c565b6104b0565b600033905090565b6000600660009054906101000a900473ffffffffffffffffffffffffffffffffffffffff16905081600660006101000a81548173ffffffffffffffffffffffffffffffffffffffff021916908373ffffffffffffffffffffffffffffffffffffffff1602179055508173ffffffffffffffffffffffffffffffffffffffff168173ffffffffffffffffffffffffffffffffffffffff167f8be0079c531659141344cd1fd0a4f28419497f9722a3daafe3b4186f6b6457e060405160405180910390a35050565b600081519050919050565b7f4e487b7100000000000000000000000000000000000000000000000000000000600052604160045260246000fd5b7f4e487b7100000000000000000000000000000000000000000000000000000000600052602260045260246000fd5b6000600282049050600182168061020f57607f821691505b602082108103610222576102216101c8565b5b50919050565b60008190508160005260206000209050919050565b60006020601f8301049050919050565b600082821b905092915050565b60006008830261028a7fffffffffffffffffffffffffffffffffffffffffffffffffffffffffffffffff8261024d565b610294868361024d565b95508019841693508086168417925050509392505050565b6000819050919050565b6000819050919050565b60006102db6102d66102d1846102ac565b6102b6565b6102ac565b9050919050565b6000819050919050565b6102f5836102c0565b610309610301826102e2565b84845461025a565b825550505050565b600090565b61031e610311565b6103298184846102ec565b505050565b5b8181101561034d57610342600082610316565b60018101905061032f565b5050565b601f8211156103925761036381610228565b61036c8461023d565b8101602085101561037b578190505b61038f6103878561023d565b83018261032e565b50505b505050565b600082821c905092915050565b60006103b560001984600802610397565b1980831691505092915050565b60006103ce83836103a4565b9150826002028217905092915050565b6103e78261018e565b67ffffffffffffffff811115610400576103ff610199565b5b61040a82546101f7565b610415828285610351565b600060209050601f8311600181146104485760008415610436578287015190505b61044085826103c2565b8655506104a8565b601f19841661045686610228565b60005b8281101561047e57848901518255600182019150602085019450602081019050610459565b8683101561049b5784890151610497601f8916826103a4565b8355505b6001600288020188555050505b505050505050565b6143f9806104bf6000396000f3fe6080604052600436106101855760003560e01c80636da789c8116100d1578063a22cb4651161008a578063c87b56dd11610064578063c87b56dd146105d9578063db21d4e014610616578063e985e9c514610632578063f2fde38b1461066f576101c5565b8063a22cb4651461056b578063b88d4fde14610594578063bfbb1037146105bd576101c5565b80636da789c81461045957806370a0823114610496578063715018a6146104d357806375794a3c146104ea5780638da5cb5b1461051557806395d89b4114610540576101c5565b806323b872dd1161013e57806342842e0e1161011857806342842e0e14610382578063517bbf46146103ab5780636352211e146103f1578063672ea0631461042e576101c5565b806323b872dd146102ea57806329d72336146103135780633aac38581461033c576101c5565b806301ffc9a7146101ca57806306fdde0314610207578063081812fc14610232578063095ea7b31461026f5780630dbf05e4146102985780630f7460d3146102c1576101c5565b366101c5576040517f08c379a00000000000000000000000000000000000000000000000000000000081526004016101bc90612a4f565b60405180910390fd5b600080fd5b3480156101d657600080fd5b506101f160048036038101906101ec9190612adb565b610698565b6040516101fe9190612b23565b60405180910390f35b34801561021357600080fd5b5061021c61077a565b6040516102299190612bbd565b60405180910390f35b34801561023e57600080fd5b5061025960048036038101906102549190612c15565b61080c565b6040516102669190612c83565b60405180910390f35b34801561027b57600080fd5b5061029660048036038101906102919190612cca565b610852565b005b3480156102a457600080fd5b506102bf60048036038101906102ba9190612d0a565b610969565b005b3480156102cd57600080fd5b506102e860048036038101906102e39190612c15565b610aab565b005b3480156102f657600080fd5b50610311600480360381019061030c9190612d4a565b610d83565b005b34801561031f57600080fd5b5061033a60048036038101906103359190612c15565b610de3565b005b34801561034857600080fd5b50610363600480360381019061035e9190612c15565b610e92565b6040516103799a99989796959493929190612dac565b60405180910390f35b34801561038e57600080fd5b506103a960048036038101906103a49190612d4a565b6111bc565b005b3480156103b757600080fd5b506103d260048036038101906103cd9190612c15565b6111dc565b6040516103e89a99989796959493929190612dac565b60405180910390f35b3480156103fd57600080fd5b5061041860048036038101906104139190612c15565b6113f5565b6040516104259190612c83565b60405180910390f35b34801561043a57600080fd5b5061044361147b565b6040516104509190612f1b565b60405180910390f35b34801561046557600080fd5b50610480600480360381019061047b9190612c15565b6114d3565b60405161048d9190612f3d565b60405180910390f35b3480156104a257600080fd5b506104bd60048036038101906104b89190612f58565b61153b565b6040516104ca9190612f3d565b60405180910390f35b3480156104df57600080fd5b506104e86115f2565b005b3480156104f657600080fd5b506104ff611606565b60405161050c9190612f3d565b60405180910390f35b34801561052157600080fd5b5061052a61160c565b6040516105379190612c83565b60405180910390f35b34801561054c57600080fd5b50610555611636565b6040516105629190612bbd565b60405180910390f35b34801561057757600080fd5b50610592600480360381019061058d9190612fb1565b6116c8565b005b3480156105a057600080fd5b506105bb60048036038101906105b69190613126565b6116de565b005b6105d760048036038101906105d2919061324a565b611740565b005b3480156105e557600080fd5b5061060060048036038101906105fb9190612c15565b611999565b60405161060d9190612bbd565b60405180910390f35b610630600480360381019061062b9190612c15565b611a89565b005b34801561063e57600080fd5b5061065960048036038101906106549190613319565b611bdb565b6040516106669190612b23565b60405180910390f35b34801561067b57600080fd5b5061069660048036038101906106919190612f58565b611c6f565b005b60007f80ac58cd000000000000000000000000000000000000000000000000000000007bffffffffffffffffffffffffffffffffffffffffffffffffffffffff1916827bffffffffffffffffffffffffffffffffffffffffffffffffffffffff1916148061076357507f5b5e139f000000000000000000000000000000000000000000000000000000007bffffffffffffffffffffffffffffffffffffffffffffffffffffffff1916827bffffffffffffffffffffffffffffffffffffffffffffffffffffffff1916145b80610773575061077282611cf2565b5b9050919050565b60606000805461078990613388565b80601f01602080910402602001604051908101604052809291908181526020018280546107b590613388565b80156108025780601f106107d757610100808354040283529160200191610802565b820191906000526020600020905b8154815290600101906020018083116107e557829003601f168201915b5050505050905090565b600061081782611d5c565b6004600083815260200190815260200160002060009054906101000a900473ffffffffffffffffffffffffffffffffffffffff169050919050565b600061085d826113f5565b90508073ffffffffffffffffffffffffffffffffffffffff168373ffffffffffffffffffffffffffffffffffffffff16036108cd576040517f08c379a00000000000000000000000000000000000000000000000000000000081526004016108c49061342b565b60405180910390fd5b8073ffffffffffffffffffffffffffffffffffffffff166108ec611da7565b73ffffffffffffffffffffffffffffffffffffffff16148061091b575061091a81610915611da7565b611bdb565b5b61095a576040517f08c379a0000000000000000000000000000000000000000000000000000000008152600401610951906134bd565b60405180910390fd5b6109648383611daf565b505050565b3373ffffffffffffffffffffffffffffffffffffffff16610989836113f5565b73ffffffffffffffffffffffffffffffffffffffff16146109df576040517f08c379a00000000000000000000000000000000000000000000000000000000081526004016109d690613529565b60405180910390fd5b60086000838152602001908152602001600020600301544210610a37576040517f08c379a0000000000000000000000000000000000000000000000000000000008152600401610a2e90613595565b60405180910390fd5b806008600084815260200190815260200160002060040160006101000a81548173ffffffffffffffffffffffffffffffffffffffff021916908373ffffffffffffffffffffffffffffffffffffffff1602179055504260086000848152602001908152602001600020600701819055505050565b6000600860008381526020019081526020016000209050610acb82611e68565b610b0a576040517f08c379a0000000000000000000000000000000000000000000000000000000008152600401610b0190613601565b60405180910390fd5b8060030154421015610b51576040517f08c379a0000000000000000000000000000000000000000000000000000000008152600401610b489061366d565b60405180910390fd5b8060040160009054906101000a900473ffffffffffffffffffffffffffffffffffffffff1673ffffffffffffffffffffffffffffffffffffffff163373ffffffffffffffffffffffffffffffffffffffff1614610be3576040517f08c379a0000000000000000000000000000000000000000000000000000000008152600401610bda906136d9565b60405180910390fd5b8060040160149054906101000a900460ff1615610c35576040517f08c379a0000000000000000000000000000000000000000000000000000000008152600401610c2c90613745565b60405180910390fd5b60018160040160146101000a81548160ff021916908315150217905550610c65610c5e836113f5565b3384611ea9565b6000816005015490506000811115610d2f576000826005018190555060003373ffffffffffffffffffffffffffffffffffffffff1682604051610ca790613796565b60006040518083038185875af1925050503d8060008114610ce4576040519150601f19603f3d011682016040523d82523d6000602084013e610ce9565b606091505b5050905080610d2d576040517f08c379a0000000000000000000000000000000000000000000000000000000008152600401610d24906137f7565b60405180910390fd5b505b3373ffffffffffffffffffffffffffffffffffffffff16837f062c8e3f61257cd5800ff8d66114a1d8783e87e8517af07d7d81e18a3b09d3a383604051610d769190612f3d565b60405180910390a3505050565b610d94610d8e611da7565b826121a2565b610dd3576040517f08c379a0000000000000000000000000000000000000000000000000000000008152600401610dca90613889565b60405180910390fd5b610dde838383611ea9565b505050565b3373ffffffffffffffffffffffffffffffffffffffff16610e03826113f5565b73ffffffffffffffffffffffffffffffffffffffff1614610e59576040517f08c379a0000000000000000000000000000000000000000000000000000000008152600401610e5090613529565b60405180910390fd5b42600860008381526020019081526020016000206008018190555042600860008381526020019081526020016000206007018190555050565b60608060606000806000806000806000610eab8b611e68565b610eea576040517f08c379a0000000000000000000000000000000000000000000000000000000008152600401610ee1906138f5565b60405180910390fd5b6000600860008d815260200190815260200160002060405180610140016040529081600082018054610f1b90613388565b80601f0160208091040260200160405190810160405280929190818152602001828054610f4790613388565b8015610f945780601f10610f6957610100808354040283529160200191610f94565b820191906000526020600020905b815481529060010190602001808311610f7757829003601f168201915b50505050508152602001600182018054610fad90613388565b80601f0160208091040260200160405190810160405280929190818152602001828054610fd990613388565b80156110265780601f10610ffb57610100808354040283529160200191611026565b820191906000526020600020905b81548152906001019060200180831161100957829003601f168201915b5050505050815260200160028201805461103f90613388565b80601f016020809104026020016040519081016040528092919081815260200182805461106b90613388565b80156110b85780601f1061108d576101008083540402835291602001916110b8565b820191906000526020600020905b81548152906001019060200180831161109b57829003601f168201915b50505050508152602001600382015481526020016004820160009054906101000a900473ffffffffffffffffffffffffffffffffffffffff1673ffffffffffffffffffffffffffffffffffffffff1673ffffffffffffffffffffffffffffffffffffffff1681526020016004820160149054906101000a900460ff161515151581526020016005820154815260200160068201548152602001600782015481526020016008820154815250509050806000015181602001518260400151836060015184608001518560a001518660c001518760e001518861010001518961012001519a509a509a509a509a509a509a509a509a509a50509193959799509193959799565b6111d7838383604051806020016040528060008152506116de565b505050565b60086020528060005260406000206000915090508060000180546111ff90613388565b80601f016020809104026020016040519081016040528092919081815260200182805461122b90613388565b80156112785780601f1061124d57610100808354040283529160200191611278565b820191906000526020600020905b81548152906001019060200180831161125b57829003601f168201915b50505050509080600101805461128d90613388565b80601f01602080910402602001604051908101604052809291908181526020018280546112b990613388565b80156113065780601f106112db57610100808354040283529160200191611306565b820191906000526020600020905b8154815290600101906020018083116112e957829003601f168201915b50505050509080600201805461131b90613388565b80601f016020809104026020016040519081016040528092919081815260200182805461134790613388565b80156113945780601f1061136957610100808354040283529160200191611394565b820191906000526020600020905b81548152906001019060200180831161137757829003601f168201915b5050505050908060030154908060040160009054906101000a900473ffffffffffffffffffffffffffffffffffffffff16908060040160149054906101000a900460ff1690806005015490806006015490806007015490806008015490508a565b60008061140183612237565b9050600073ffffffffffffffffffffffffffffffffffffffff168173ffffffffffffffffffffffffffffffffffffffff1603611472576040517f08c379a000000000000000000000000000000000000000000000000000000000815260040161146990613961565b60405180910390fd5b80915050919050565b606060098054806020026020016040519081016040528092919081815260200182805480156114c957602002820191906000526020600020905b8154815260200190600101908083116114b5575b5050505050905090565b60006114de82611e68565b61151d576040517f08c379a0000000000000000000000000000000000000000000000000000000008152600401611514906138f5565b60405180910390fd5b60086000838152602001908152602001600020600501549050919050565b60008073ffffffffffffffffffffffffffffffffffffffff168273ffffffffffffffffffffffffffffffffffffffff16036115ab576040517f08c379a00000000000000000000000000000000000000000000000000000000081526004016115a2906139f3565b60405180910390fd5b600360008373ffffffffffffffffffffffffffffffffffffffff1673ffffffffffffffffffffffffffffffffffffffff168152602001908152602001600020549050919050565b6115fa612274565b61160460006122f2565b565b60075481565b6000600660009054906101000a900473ffffffffffffffffffffffffffffffffffffffff16905090565b60606001805461164590613388565b80601f016020809104026020016040519081016040528092919081815260200182805461167190613388565b80156116be5780601f10611693576101008083540402835291602001916116be565b820191906000526020600020905b8154815290600101906020018083116116a157829003601f168201915b5050505050905090565b6116da6116d3611da7565b83836123b8565b5050565b6116ef6116e9611da7565b836121a2565b61172e576040517f08c379a000000000000000000000000000000000000000000000000000000000815260040161172590613889565b60405180910390fd5b61173a84848484612524565b50505050565b428411611782576040517f08c379a000000000000000000000000000000000000000000000000000000000815260040161177990613a5f565b60405180910390fd5b60006007600081548092919061179790613aae565b9190505590506117a73382612580565b6040518061014001604052808581526020018481526020018381526020018681526020018773ffffffffffffffffffffffffffffffffffffffff168152602001600015158152602001348152602001428152602001428152602001600081525060086000838152602001908152602001600020600082015181600001908161182f9190613ca2565b5060208201518160010190816118459190613ca2565b50604082015181600201908161185b9190613ca2565b506060820151816003015560808201518160040160006101000a81548173ffffffffffffffffffffffffffffffffffffffff021916908373ffffffffffffffffffffffffffffffffffffffff16021790555060a08201518160040160146101000a81548160ff02191690831515021790555060c0820151816005015560e082015181600601556101008201518160070155610120820151816008015590505060098190806001815401808255809150506001900390600052602060002001600090919091909150558573ffffffffffffffffffffffffffffffffffffffff163373ffffffffffffffffffffffffffffffffffffffff16827f36205f3cb725b2dcdb44a04059f198cbd8b0035be79abfa7fb4737dcbf178bd68888888834604051611989959493929190613d74565b60405180910390a4505050505050565b60606119a482611e68565b6119e3576040517f08c379a00000000000000000000000000000000000000000000000000000000081526004016119da90613e28565b60405180910390fd5b600860008381526020019081526020016000206002018054611a0490613388565b80601f0160208091040260200160405190810160405280929190818152602001828054611a3090613388565b8015611a7d5780601f10611a5257610100808354040283529160200191611a7d565b820191906000526020600020905b815481529060010190602001808311611a6057829003601f168201915b50505050509050919050565b611a9281611e68565b611ad1576040517f08c379a0000000000000000000000000000000000000000000000000000000008152600401611ac890613601565b60405180910390fd5b3373ffffffffffffffffffffffffffffffffffffffff16611af1826113f5565b73ffffffffffffffffffffffffffffffffffffffff1614611b47576040517f08c379a0000000000000000000000000000000000000000000000000000000008152600401611b3e90613e94565b60405180910390fd5b6008600082815260200190815260200160002060040160149054906101000a900460ff1615611bab576040517f08c379a0000000000000000000000000000000000000000000000000000000008152600401611ba290613745565b60405180910390fd5b34600860008381526020019081526020016000206005016000828254611bd19190613eb4565b9250508190555050565b6000600560008473ffffffffffffffffffffffffffffffffffffffff1673ffffffffffffffffffffffffffffffffffffffff16815260200190815260200160002060008373ffffffffffffffffffffffffffffffffffffffff1673ffffffffffffffffffffffffffffffffffffffff16815260200190815260200160002060009054906101000a900460ff16905092915050565b611c77612274565b600073ffffffffffffffffffffffffffffffffffffffff168173ffffffffffffffffffffffffffffffffffffffff1603611ce6576040517f08c379a0000000000000000000000000000000000000000000000000000000008152600401611cdd90613f5a565b60405180910390fd5b611cef816122f2565b50565b60007f01ffc9a7000000000000000000000000000000000000000000000000000000007bffffffffffffffffffffffffffffffffffffffffffffffffffffffff1916827bffffffffffffffffffffffffffffffffffffffffffffffffffffffff1916149050919050565b611d6581611e68565b611da4576040517f08c379a0000000000000000000000000000000000000000000000000000000008152600401611d9b90613961565b60405180910390fd5b50565b600033905090565b816004600083815260200190815260200160002060006101000a81548173ffffffffffffffffffffffffffffffffffffffff021916908373ffffffffffffffffffffffffffffffffffffffff160217905550808273ffffffffffffffffffffffffffffffffffffffff16611e22836113f5565b73ffffffffffffffffffffffffffffffffffffffff167f8c5be1e5ebec7d5bd14f71427d1e84f3dd0314c0f7b2291e5b200ac8c7c3b92560405160405180910390a45050565b60008073ffffffffffffffffffffffffffffffffffffffff16611e8a83612237565b73ffffffffffffffffffffffffffffffffffffffff1614159050919050565b8273ffffffffffffffffffffffffffffffffffffffff16611ec9826113f5565b73ffffffffffffffffffffffffffffffffffffffff1614611f1f576040517f08c379a0000000000000000000000000000000000000000000000000000000008152600401611f1690613fec565b60405180910390fd5b600073ffffffffffffffffffffffffffffffffffffffff168273ffffffffffffffffffffffffffffffffffffffff1603611f8e576040517f08c379a0000000000000000000000000000000000000000000000000000000008152600401611f859061407e565b60405180910390fd5b611f9b838383600161259e565b8273ffffffffffffffffffffffffffffffffffffffff16611fbb826113f5565b73ffffffffffffffffffffffffffffffffffffffff1614612011576040517f08c379a000000000000000000000000000000000000000000000000000000000815260040161200890613fec565b60405180910390fd5b6004600082815260200190815260200160002060006101000a81549073ffffffffffffffffffffffffffffffffffffffff02191690556001600360008573ffffffffffffffffffffffffffffffffffffffff1673ffffffffffffffffffffffffffffffffffffffff168152602001908152602001600020600082825403925050819055506001600360008473ffffffffffffffffffffffffffffffffffffffff1673ffffffffffffffffffffffffffffffffffffffff16815260200190815260200160002060008282540192505081905550816002600083815260200190815260200160002060006101000a81548173ffffffffffffffffffffffffffffffffffffffff021916908373ffffffffffffffffffffffffffffffffffffffff160217905550808273ffffffffffffffffffffffffffffffffffffffff168473ffffffffffffffffffffffffffffffffffffffff167fddf252ad1be2c89b69c2b068fc378daa952ba7f163c4a11628f55a4df523b3ef60405160405180910390a461219d83838360016125a4565b505050565b6000806121ae836113f5565b90508073ffffffffffffffffffffffffffffffffffffffff168473ffffffffffffffffffffffffffffffffffffffff1614806121f057506121ef8185611bdb565b5b8061222e57508373ffffffffffffffffffffffffffffffffffffffff166122168461080c565b73ffffffffffffffffffffffffffffffffffffffff16145b91505092915050565b60006002600083815260200190815260200160002060009054906101000a900473ffffffffffffffffffffffffffffffffffffffff169050919050565b61227c611da7565b73ffffffffffffffffffffffffffffffffffffffff1661229a61160c565b73ffffffffffffffffffffffffffffffffffffffff16146122f0576040517f08c379a00000000000000000000000000000000000000000000000000000000081526004016122e7906140ea565b60405180910390fd5b565b6000600660009054906101000a900473ffffffffffffffffffffffffffffffffffffffff16905081600660006101000a81548173ffffffffffffffffffffffffffffffffffffffff021916908373ffffffffffffffffffffffffffffffffffffffff1602179055508173ffffffffffffffffffffffffffffffffffffffff168173ffffffffffffffffffffffffffffffffffffffff167f8be0079c531659141344cd1fd0a4f28419497f9722a3daafe3b4186f6b6457e060405160405180910390a35050565b8173ffffffffffffffffffffffffffffffffffffffff168373ffffffffffffffffffffffffffffffffffffffff1603612426576040517f08c379a000000000000000000000000000000000000000000000000000000000815260040161241d90614156565b60405180910390fd5b80600560008573ffffffffffffffffffffffffffffffffffffffff1673ffffffffffffffffffffffffffffffffffffffff16815260200190815260200160002060008473ffffffffffffffffffffffffffffffffffffffff1673ffffffffffffffffffffffffffffffffffffffff16815260200190815260200160002060006101000a81548160ff0219169083151502179055508173ffffffffffffffffffffffffffffffffffffffff168373ffffffffffffffffffffffffffffffffffffffff167f17307eab39ab6107e8899845ad3d59bd9653f200f220920489ca2b5937696c31836040516125179190612b23565b60405180910390a3505050565b61252f848484611ea9565b61253b848484846125aa565b61257a576040517f08c379a0000000000000000000000000000000000000000000000000000000008152600401612571906141e8565b60405180910390fd5b50505050565b61259a828260405180602001604052806000815250612731565b5050565b50505050565b50505050565b60006125cb8473ffffffffffffffffffffffffffffffffffffffff1661278c565b15612724578373ffffffffffffffffffffffffffffffffffffffff1663150b7a026125f4611da7565b8786866040518563ffffffff1660e01b8152600401612616949392919061425d565b6020604051808303816000875af192505050801561265257506040513d601f19601f8201168201806040525081019061264f91906142be565b60015b6126d4573d8060008114612682576040519150601f19603f3d011682016040523d82523d6000602084013e612687565b606091505b5060008151036126cc576040517f08c379a00000000000000000000000000000000000000000000000000000000081526004016126c3906141e8565b60405180910390fd5b805181602001fd5b63150b7a0260e01b7bffffffffffffffffffffffffffffffffffffffffffffffffffffffff1916817bffffffffffffffffffffffffffffffffffffffffffffffffffffffff191614915050612729565b600190505b949350505050565b61273b83836127af565b61274860008484846125aa565b612787576040517f08c379a000000000000000000000000000000000000000000000000000000000815260040161277e906141e8565b60405180910390fd5b505050565b6000808273ffffffffffffffffffffffffffffffffffffffff163b119050919050565b600073ffffffffffffffffffffffffffffffffffffffff168273ffffffffffffffffffffffffffffffffffffffff160361281e576040517f08c379a000000000000000000000000000000000000000000000000000000000815260040161281590614337565b60405180910390fd5b61282781611e68565b15612867576040517f08c379a000000000000000000000000000000000000000000000000000000000815260040161285e906143a3565b60405180910390fd5b61287560008383600161259e565b61287e81611e68565b156128be576040517f08c379a00000000000000000000000000000000000000000000000000000000081526004016128b5906143a3565b60405180910390fd5b6001600360008473ffffffffffffffffffffffffffffffffffffffff1673ffffffffffffffffffffffffffffffffffffffff16815260200190815260200160002060008282540192505081905550816002600083815260200190815260200160002060006101000a81548173ffffffffffffffffffffffffffffffffffffffff021916908373ffffffffffffffffffffffffffffffffffffffff160217905550808273ffffffffffffffffffffffffffffffffffffffff16600073ffffffffffffffffffffffffffffffffffffffff167fddf252ad1be2c89b69c2b068fc378daa952ba7f163c4a11628f55a4df523b3ef60405160405180910390a46129c86000838360016125a4565b5050565b600082825260208201905092915050565b7f5573652061646446756e6473546f43617073756c6520746f2066756e6420612060008201527f63617073756c6500000000000000000000000000000000000000000000000000602082015250565b6000612a396027836129cc565b9150612a44826129dd565b604082019050919050565b60006020820190508181036000830152612a6881612a2c565b9050919050565b6000604051905090565b600080fd5b600080fd5b60007fffffffff0000000000000000000000000000000000000000000000000000000082169050919050565b612ab881612a83565b8114612ac357600080fd5b50565b600081359050612ad581612aaf565b92915050565b600060208284031215612af157612af0612a79565b5b6000612aff84828501612ac6565b91505092915050565b60008115159050919050565b612b1d81612b08565b82525050565b6000602082019050612b386000830184612b14565b92915050565b600081519050919050565b60005b83811015612b67578082015181840152602081019050612b4c565b60008484015250505050565b6000601f19601f8301169050919050565b6000612b8f82612b3e565b612b9981856129cc565b9350612ba9818560208601612b49565b612bb281612b73565b840191505092915050565b60006020820190508181036000830152612bd78184612b84565b905092915050565b6000819050919050565b612bf281612bdf565b8114612bfd57600080fd5b50565b600081359050612c0f81612be9565b92915050565b600060208284031215612c2b57612c2a612a79565b5b6000612c3984828501612c00565b91505092915050565b600073ffffffffffffffffffffffffffffffffffffffff82169050919050565b6000612c6d82612c42565b9050919050565b612c7d81612c62565b82525050565b6000602082019050612c986000830184612c74565b92915050565b612ca781612c62565b8114612cb257600080fd5b50565b600081359050612cc481612c9e565b92915050565b60008060408385031215612ce157612ce0612a79565b5b6000612cef85828601612cb5565b9250506020612d0085828601612c00565b9150509250929050565b60008060408385031215612d2157612d20612a79565b5b6000612d2f85828601612c00565b9250506020612d4085828601612cb5565b9150509250929050565b600080600060608486031215612d6357612d62612a79565b5b6000612d7186828701612cb5565b9350506020612d8286828701612cb5565b9250506040612d9386828701612c00565b9150509250925092565b612da681612bdf565b82525050565b6000610140820190508181036000830152612dc7818d612b84565b90508181036020830152612ddb818c612b84565b90508181036040830152612def818b612b84565b9050612dfe606083018a612d9d565b612e0b6080830189612c74565b612e1860a0830188612b14565b612e2560c0830187612d9d565b612e3260e0830186612d9d565b612e40610100830185612d9d565b612e4e610120830184612d9d565b9b9a5050505050505050505050565b600081519050919050565b600082825260208201905092915050565b6000819050602082019050919050565b612e9281612bdf565b82525050565b6000612ea48383612e89565b60208301905092915050565b6000602082019050919050565b6000612ec882612e5d565b612ed28185612e68565b9350612edd83612e79565b8060005b83811015612f0e578151612ef58882612e98565b9750612f0083612eb0565b925050600181019050612ee1565b5085935050505092915050565b60006020820190508181036000830152612f358184612ebd565b905092915050565b6000602082019050612f526000830184612d9d565b92915050565b600060208284031215612f6e57612f6d612a79565b5b6000612f7c84828501612cb5565b91505092915050565b612f8e81612b08565b8114612f9957600080fd5b50565b600081359050612fab81612f85565b92915050565b60008060408385031215612fc857612fc7612a79565b5b6000612fd685828601612cb5565b9250506020612fe785828601612f9c565b9150509250929050565b600080fd5b600080fd5b7f4e487b7100000000000000000000000000000000000000000000000000000000600052604160045260246000fd5b61303382612b73565b810181811067ffffffffffffffff8211171561305257613051612ffb565b5b80604052505050565b6000613065612a6f565b9050613071828261302a565b919050565b600067ffffffffffffffff82111561309157613090612ffb565b5b61309a82612b73565b9050602081019050919050565b82818337600083830152505050565b60006130c96130c484613076565b61305b565b9050828152602081018484840111156130e5576130e4612ff6565b5b6130f08482856130a7565b509392505050565b600082601f83011261310d5761310c612ff1565b5b813561311d8482602086016130b6565b91505092915050565b600080600080608085870312156131405761313f612a79565b5b600061314e87828801612cb5565b945050602061315f87828801612cb5565b935050604061317087828801612c00565b925050606085013567ffffffffffffffff81111561319157613190612a7e565b5b61319d878288016130f8565b91505092959194509250565b600067ffffffffffffffff8211156131c4576131c3612ffb565b5b6131cd82612b73565b9050602081019050919050565b60006131ed6131e8846131a9565b61305b565b90508281526020810184848401111561320957613208612ff6565b5b6132148482856130a7565b509392505050565b600082601f83011261323157613230612ff1565b5b81356132418482602086016131da565b91505092915050565b600080600080600060a0868803121561326657613265612a79565b5b600061327488828901612cb5565b955050602061328588828901612c00565b945050604086013567ffffffffffffffff8111156132a6576132a5612a7e565b5b6132b28882890161321c565b935050606086013567ffffffffffffffff8111156132d3576132d2612a7e565b5b6132df8882890161321c565b925050608086013567ffffffffffffffff811115613300576132ff612a7e565b5b61330c8882890161321c565b9150509295509295909350565b600080604083850312156133305761332f612a79565b5b600061333e85828601612cb5565b925050602061334f85828601612cb5565b9150509250929050565b7f4e487b7100000000000000000000000000000000000000000000000000000000600052602260045260246000fd5b600060028204905060018216806133a057607f821691505b6020821081036133b3576133b2613359565b5b50919050565b7f4552433732313a20617070726f76616c20746f2063757272656e74206f776e6560008201527f7200000000000000000000000000000000000000000000000000000000000000602082015250565b60006134156021836129cc565b9150613420826133b9565b604082019050919050565b6000602082019050818103600083015261344481613408565b9050919050565b7f4552433732313a20617070726f76652063616c6c6572206973206e6f7420746f60008201527f6b656e206f776e6572206f7220617070726f76656420666f7220616c6c000000602082015250565b60006134a7603d836129cc565b91506134b28261344b565b604082019050919050565b600060208201905081810360008301526134d68161349a565b9050919050565b7f4e6f7420746f6b656e206f776e65720000000000000000000000000000000000600082015250565b6000613513600f836129cc565b915061351e826134dd565b602082019050919050565b6000602082019050818103600083015261354281613506565b9050919050565b7f43617073756c6520616c726561647920756e6c6f636b65640000000000000000600082015250565b600061357f6018836129cc565b915061358a82613549565b602082019050919050565b600060208201905081810360008301526135ae81613572565b9050919050565b7f496e76616c696420746f6b656e00000000000000000000000000000000000000600082015250565b60006135eb600d836129cc565b91506135f6826135b5565b602082019050919050565b6000602082019050818103600083015261361a816135de565b9050919050565b7f43617073756c65206973207374696c6c206c6f636b6564000000000000000000600082015250565b60006136576017836129cc565b915061366282613621565b602082019050919050565b600060208201905081810360008301526136868161364a565b9050919050565b7f596f7520617265206e6f74207468652064657369676e61746564206865697200600082015250565b60006136c3601f836129cc565b91506136ce8261368d565b602082019050919050565b600060208201905081810360008301526136f2816136b6565b9050919050565b7f43617073756c6520616c726561647920636c61696d6564000000000000000000600082015250565b600061372f6017836129cc565b915061373a826136f9565b602082019050919050565b6000602082019050818103600083015261375e81613722565b9050919050565b600081905092915050565b50565b6000613780600083613765565b915061378b82613770565b600082019050919050565b60006137a182613773565b9150819050919050565b7f5472616e73666572206661696c65640000000000000000000000000000000000600082015250565b60006137e1600f836129cc565b91506137ec826137ab565b602082019050919050565b60006020820190508181036000830152613810816137d4565b9050919050565b7f4552433732313a2063616c6c6572206973206e6f7420746f6b656e206f776e6560008201527f72206f7220617070726f76656400000000000000000000000000000000000000602082015250565b6000613873602d836129cc565b915061387e82613817565b604082019050919050565b600060208201905081810360008301526138a281613866565b9050919050565b7f43617073756c6520646f6573206e6f7420657869737400000000000000000000600082015250565b60006138df6016836129cc565b91506138ea826138a9565b602082019050919050565b6000602082019050818103600083015261390e816138d2565b9050919050565b7f4552433732313a20696e76616c696420746f6b656e2049440000000000000000600082015250565b600061394b6018836129cc565b915061395682613915565b602082019050919050565b6000602082019050818103600083015261397a8161393e565b9050919050565b7f4552433732313a2061646472657373207a65726f206973206e6f74206120766160008201527f6c6964206f776e65720000000000000000000000000000000000000000000000602082015250565b60006139dd6029836129cc565b91506139e882613981565b604082019050919050565b60006020820190508181036000830152613a0c816139d0565b9050919050565b7f556e6c6f636b2064617465206d75737420626520696e20667574757265000000600082015250565b6000613a49601d836129cc565b9150613a5482613a13565b602082019050919050565b60006020820190508181036000830152613a7881613a3c565b9050919050565b7f4e487b7100000000000000000000000000000000000000000000000000000000600052601160045260246000fd5b6000613ab982612bdf565b91507fffffffffffffffffffffffffffffffffffffffffffffffffffffffffffffffff8203613aeb57613aea613a7f565b5b600182019050919050565b60008190508160005260206000209050919050565b60006020601f8301049050919050565b600082821b905092915050565b600060088302613b587fffffffffffffffffffffffffffffffffffffffffffffffffffffffffffffffff82613b1b565b613b628683613b1b565b95508019841693508086168417925050509392505050565b6000819050919050565b6000613b9f613b9a613b9584612bdf565b613b7a565b612bdf565b9050919050565b6000819050919050565b613bb983613b84565b613bcd613bc582613ba6565b848454613b28565b825550505050565b600090565b613be2613bd5565b613bed818484613bb0565b505050565b5b81811015613c1157613c06600082613bda565b600181019050613bf3565b5050565b601f821115613c5657613c2781613af6565b613c3084613b0b565b81016020851015613c3f578190505b613c53613c4b85613b0b565b830182613bf2565b50505b505050565b600082821c905092915050565b6000613c7960001984600802613c5b565b1980831691505092915050565b6000613c928383613c68565b9150826002028217905092915050565b613cab82612b3e565b67ffffffffffffffff811115613cc457613cc3612ffb565b5b613cce8254613388565b613cd9828285613c15565b600060209050601f831160018114613d0c5760008415613cfa578287015190505b613d048582613c86565b865550613d6c565b601f198416613d1a86613af6565b60005b82811015613d4257848901518255600182019150602085019450602081019050613d1d565b86831015613d5f5784890151613d5b601f891682613c68565b8355505b6001600288020188555050505b505050505050565b600060a082019050613d896000830188612d9d565b8181036020830152613d9b8187612b84565b90508181036040830152613daf8186612b84565b90508181036060830152613dc38185612b84565b9050613dd26080830184612d9d565b9695505050505050565b7f546f6b656e20646f6573206e6f74206578697374000000000000000000000000600082015250565b6000613e126014836129cc565b9150613e1d82613ddc565b602082019050919050565b60006020820190508181036000830152613e4181613e05565b9050919050565b7f4f6e6c792063617073756c65206f776e65722063616e2066756e642069740000600082015250565b6000613e7e601e836129cc565b9150613e8982613e48565b602082019050919050565b60006020820190508181036000830152613ead81613e71565b9050919050565b6000613ebf82612bdf565b9150613eca83612bdf565b9250828201905080821115613ee257613ee1613a7f565b5b92915050565b7f4f776e61626c653a206e6577206f776e657220697320746865207a65726f206160008201527f6464726573730000000000000000000000000000000000000000000000000000602082015250565b6000613f446026836129cc565b9150613f4f82613ee8565b604082019050919050565b60006020820190508181036000830152613f7381613f37565b9050919050565b7f4552433732313a207472616e736665722066726f6d20696e636f72726563742060008201527f6f776e6572000000000000000000000000000000000000000000000000000000602082015250565b6000613fd66025836129cc565b9150613fe182613f7a565b604082019050919050565b6000602082019050818103600083015261400581613fc9565b9050919050565b7f4552433732313a207472616e7366657220746f20746865207a65726f2061646460008201527f7265737300000000000000000000000000000000000000000000000000000000602082015250565b60006140686024836129cc565b91506140738261400c565b604082019050919050565b600060208201905081810360008301526140978161405b565b9050919050565b7f4f776e61626c653a2063616c6c6572206973206e6f7420746865206f776e6572600082015250565b60006140d46020836129cc565b91506140df8261409e565b602082019050919050565b60006020820190508181036000830152614103816140c7565b9050919050565b7f4552433732313a20617070726f766520746f2063616c6c657200000000000000600082015250565b60006141406019836129cc565b915061414b8261410a565b602082019050919050565b6000602082019050818103600083015261416f81614133565b9050919050565b7f4552433732313a207472616e7366657220746f206e6f6e20455243373231526560008201527f63656976657220696d706c656d656e7465720000000000000000000000000000602082015250565b60006141d26032836129cc565b91506141dd82614176565b604082019050919050565b60006020820190508181036000830152614201816141c5565b9050919050565b600081519050919050565b600082825260208201905092915050565b600061422f82614208565b6142398185614213565b9350614249818560208601612b49565b61425281612b73565b840191505092915050565b60006080820190506142726000830187612c74565b61427f6020830186612c74565b61428c6040830185612d9d565b818103606083015261429e8184614224565b905095945050505050565b6000815190506142b881612aaf565b92915050565b6000602082840312156142d4576142d3612a79565b5b60006142e2848285016142a9565b91505092915050565b7f4552433732313a206d696e7420746f20746865207a65726f2061646472657373600082015250565b60006143216020836129cc565b915061432c826142eb565b602082019050919050565b6000602082019050818103600083015261435081614314565b9050919050565b7f4552433732313a20746f6b656e20616c7265616479206d696e74656400000000600082015250565b600061438d601c836129cc565b915061439882614357565b602082019050919050565b600060208201905081810360008301526143bc81614380565b905091905056fea26469706673582212202d0ce08e52dec5f9d1057e3d8d6472e8161d0ea82a61ce58bd1c5c4df90be79564736f6c634300081c0033",
  "linkReferences": {},
  "deployedLinkReferences": {}
}